{
	"contracts/FundMe.sol": {
		"FundMe": {
			"abi": [
				{
					"inputs": [],
					"stateMutability": "nonpayable",
					"type": "constructor"
				},
				{
					"inputs": [
						{
							"internalType": "address",
							"name": "",
							"type": "address"
						}
					],
					"name": "addressToAmountFunded",
					"outputs": [
						{
							"internalType": "uint256",
							"name": "",
							"type": "uint256"
						}
					],
					"stateMutability": "view",
					"type": "function"
				},
				{
					"inputs": [],
					"name": "fund",
					"outputs": [],
					"stateMutability": "payable",
					"type": "function"
				},
				{
					"inputs": [
						{
							"internalType": "uint256",
							"name": "",
							"type": "uint256"
						}
					],
					"name": "funders",
					"outputs": [
						{
							"internalType": "address",
							"name": "",
							"type": "address"
						}
					],
					"stateMutability": "view",
					"type": "function"
				},
				{
					"inputs": [],
					"name": "minimumUsd",
					"outputs": [
						{
							"internalType": "uint256",
							"name": "",
							"type": "uint256"
						}
					],
					"stateMutability": "view",
					"type": "function"
				},
				{
					"inputs": [],
					"name": "owner",
					"outputs": [
						{
							"internalType": "address",
							"name": "",
							"type": "address"
						}
					],
					"stateMutability": "view",
					"type": "function"
				},
				{
					"inputs": [],
					"name": "withdraw",
					"outputs": [],
					"stateMutability": "nonpayable",
					"type": "function"
				}
			],
			"devdoc": {
				"kind": "dev",
				"methods": {},
				"version": 1
			},
			"evm": {
				"assembly": "    /* \"contracts/FundMe.sol\":183:1643  contract FundMe {... */\n  mstore(0x40, 0x80)\n    /* \"contracts/FundMe.sol\":277:284  50*1e18 */\n  0x02b5e3af16b1880000\n    /* \"contracts/FundMe.sol\":249:284  uint256 public minimumUsd = 50*1e18 */\n  0x00\n  sstore\n    /* \"contracts/FundMe.sol\":419:470  constructor() {... */\n  callvalue\n  dup1\n  iszero\n  tag_1\n  jumpi\n  revert(0x00, 0x00)\ntag_1:\n  pop\n    /* \"contracts/FundMe.sol\":452:462  msg.sender */\n  caller\n    /* \"contracts/FundMe.sol\":444:449  owner */\n  0x03\n  0x00\n    /* \"contracts/FundMe.sol\":444:462  owner = msg.sender */\n  0x0100\n  exp\n  dup2\n  sload\n  dup2\n  0xffffffffffffffffffffffffffffffffffffffff\n  mul\n  not\n  and\n  swap1\n  dup4\n  0xffffffffffffffffffffffffffffffffffffffff\n  and\n  mul\n  or\n  swap1\n  sstore\n  pop\n    /* \"contracts/FundMe.sol\":183:1643  contract FundMe {... */\n  dataSize(sub_0)\n  dup1\n  dataOffset(sub_0)\n  0x00\n  codecopy\n  0x00\n  return\nstop\n\nsub_0: assembly {\n        /* \"contracts/FundMe.sol\":183:1643  contract FundMe {... */\n      mstore(0x40, 0x80)\n      jumpi(tag_1, lt(calldatasize, 0x04))\n      shr(0xe0, calldataload(0x00))\n      dup1\n      0x098de820\n      eq\n      tag_2\n      jumpi\n      dup1\n      0x3ccfd60b\n      eq\n      tag_3\n      jumpi\n      dup1\n      0x3e47d6f3\n      eq\n      tag_4\n      jumpi\n      dup1\n      0x8da5cb5b\n      eq\n      tag_5\n      jumpi\n      dup1\n      0xb60d4288\n      eq\n      tag_6\n      jumpi\n      dup1\n      0xdc0d3dff\n      eq\n      tag_7\n      jumpi\n    tag_1:\n      revert(0x00, 0x00)\n        /* \"contracts/FundMe.sol\":249:284  uint256 public minimumUsd = 50*1e18 */\n    tag_2:\n      callvalue\n      dup1\n      iszero\n      tag_8\n      jumpi\n      revert(0x00, 0x00)\n    tag_8:\n      pop\n      tag_9\n      tag_10\n      jump\t// in\n    tag_9:\n      mload(0x40)\n      tag_11\n      swap2\n      swap1\n      tag_12\n      jump\t// in\n    tag_11:\n      mload(0x40)\n      dup1\n      swap2\n      sub\n      swap1\n      return\n        /* \"contracts/FundMe.sol\":818:1528  function withdraw() public OnlyOwner {... */\n    tag_3:\n      callvalue\n      dup1\n      iszero\n      tag_13\n      jumpi\n      revert(0x00, 0x00)\n    tag_13:\n      pop\n      tag_14\n      tag_15\n      jump\t// in\n    tag_14:\n      stop\n        /* \"contracts/FundMe.sol\":324:381  mapping (address => uint256) public addressToAmountFunded */\n    tag_4:\n      callvalue\n      dup1\n      iszero\n      tag_16\n      jumpi\n      revert(0x00, 0x00)\n    tag_16:\n      pop\n      tag_17\n      0x04\n      dup1\n      calldatasize\n      sub\n      dup2\n      add\n      swap1\n      tag_18\n      swap2\n      swap1\n      tag_19\n      jump\t// in\n    tag_18:\n      tag_20\n      jump\t// in\n    tag_17:\n      mload(0x40)\n      tag_21\n      swap2\n      swap1\n      tag_12\n      jump\t// in\n    tag_21:\n      mload(0x40)\n      dup1\n      swap2\n      sub\n      swap1\n      return\n        /* \"contracts/FundMe.sol\":390:410  address public owner */\n    tag_5:\n      callvalue\n      dup1\n      iszero\n      tag_22\n      jumpi\n      revert(0x00, 0x00)\n    tag_22:\n      pop\n      tag_23\n      tag_24\n      jump\t// in\n    tag_23:\n      mload(0x40)\n      tag_25\n      swap2\n      swap1\n      tag_26\n      jump\t// in\n    tag_25:\n      mload(0x40)\n      dup1\n      swap2\n      sub\n      swap1\n      return\n        /* \"contracts/FundMe.sol\":479:812  function fund() public payable {... */\n    tag_6:\n      tag_27\n      tag_28\n      jump\t// in\n    tag_27:\n      stop\n        /* \"contracts/FundMe.sol\":293:317  address[] public funders */\n    tag_7:\n      callvalue\n      dup1\n      iszero\n      tag_29\n      jumpi\n      revert(0x00, 0x00)\n    tag_29:\n      pop\n      tag_30\n      0x04\n      dup1\n      calldatasize\n      sub\n      dup2\n      add\n      swap1\n      tag_31\n      swap2\n      swap1\n      tag_32\n      jump\t// in\n    tag_31:\n      tag_33\n      jump\t// in\n    tag_30:\n      mload(0x40)\n      tag_34\n      swap2\n      swap1\n      tag_26\n      jump\t// in\n    tag_34:\n      mload(0x40)\n      dup1\n      swap2\n      sub\n      swap1\n      return\n        /* \"contracts/FundMe.sol\":249:284  uint256 public minimumUsd = 50*1e18 */\n    tag_10:\n      sload(0x00)\n      dup2\n      jump\t// out\n        /* \"contracts/FundMe.sol\":818:1528  function withdraw() public OnlyOwner {... */\n    tag_15:\n        /* \"contracts/FundMe.sol\":1590:1595  owner */\n      0x03\n      0x00\n      swap1\n      sload\n      swap1\n      0x0100\n      exp\n      swap1\n      div\n      0xffffffffffffffffffffffffffffffffffffffff\n      and\n        /* \"contracts/FundMe.sol\":1576:1595  msg.sender == owner */\n      0xffffffffffffffffffffffffffffffffffffffff\n      and\n        /* \"contracts/FundMe.sol\":1576:1586  msg.sender */\n      caller\n        /* \"contracts/FundMe.sol\":1576:1595  msg.sender == owner */\n      0xffffffffffffffffffffffffffffffffffffffff\n      and\n      eq\n        /* \"contracts/FundMe.sol\":1568:1620  require(msg.sender == owner, \"Sender is not owner!\") */\n      tag_36\n      jumpi\n      mload(0x40)\n      0x08c379a000000000000000000000000000000000000000000000000000000000\n      dup2\n      mstore\n      0x04\n      add\n      tag_37\n      swap1\n      tag_38\n      jump\t// in\n    tag_37:\n      mload(0x40)\n      dup1\n      swap2\n      sub\n      swap1\n      revert\n    tag_36:\n        /* \"contracts/FundMe.sol\":870:889  uint256 funderIndex */\n      0x00\n        /* \"contracts/FundMe.sol\":892:893  0 */\n      0x00\n        /* \"contracts/FundMe.sol\":870:893  uint256 funderIndex = 0 */\n      swap1\n      pop\n        /* \"contracts/FundMe.sol\":866:1052  for(uint256 funderIndex = 0; funderIndex < funders.length; funderIndex++) {... */\n    tag_40:\n        /* \"contracts/FundMe.sol\":909:916  funders */\n      0x01\n        /* \"contracts/FundMe.sol\":909:923  funders.length */\n      dup1\n      sload\n      swap1\n      pop\n        /* \"contracts/FundMe.sol\":895:906  funderIndex */\n      dup2\n        /* \"contracts/FundMe.sol\":895:923  funderIndex < funders.length */\n      lt\n        /* \"contracts/FundMe.sol\":866:1052  for(uint256 funderIndex = 0; funderIndex < funders.length; funderIndex++) {... */\n      iszero\n      tag_41\n      jumpi\n        /* \"contracts/FundMe.sol\":955:969  address funder */\n      0x00\n        /* \"contracts/FundMe.sol\":972:979  funders */\n      0x01\n        /* \"contracts/FundMe.sol\":980:991  funderIndex */\n      dup3\n        /* \"contracts/FundMe.sol\":972:992  funders[funderIndex] */\n      dup2\n      sload\n      dup2\n      lt\n      tag_43\n      jumpi\n      tag_44\n      tag_45\n      jump\t// in\n    tag_44:\n    tag_43:\n      swap1\n      0x00\n      mstore\n      keccak256(0x00, 0x20)\n      add\n      0x00\n      swap1\n      sload\n      swap1\n      0x0100\n      exp\n      swap1\n      div\n      0xffffffffffffffffffffffffffffffffffffffff\n      and\n        /* \"contracts/FundMe.sol\":955:992  address funder = funders[funderIndex] */\n      swap1\n      pop\n        /* \"contracts/FundMe.sol\":1039:1040  0 */\n      0x00\n        /* \"contracts/FundMe.sol\":1007:1028  addressToAmountFunded */\n      0x02\n        /* \"contracts/FundMe.sol\":1007:1036  addressToAmountFunded[funder] */\n      0x00\n        /* \"contracts/FundMe.sol\":1029:1035  funder */\n      dup4\n        /* \"contracts/FundMe.sol\":1007:1036  addressToAmountFunded[funder] */\n      0xffffffffffffffffffffffffffffffffffffffff\n      and\n      0xffffffffffffffffffffffffffffffffffffffff\n      and\n      dup2\n      mstore\n      0x20\n      add\n      swap1\n      dup2\n      mstore\n      0x20\n      add\n      0x00\n      keccak256\n        /* \"contracts/FundMe.sol\":1007:1040  addressToAmountFunded[funder] = 0 */\n      dup2\n      swap1\n      sstore\n      pop\n        /* \"contracts/FundMe.sol\":940:1052  {... */\n      pop\n        /* \"contracts/FundMe.sol\":925:938  funderIndex++ */\n      dup1\n      dup1\n      0x01\n      add\n      swap2\n      pop\n      pop\n        /* \"contracts/FundMe.sol\":866:1052  for(uint256 funderIndex = 0; funderIndex < funders.length; funderIndex++) {... */\n      jump(tag_40)\n    tag_41:\n      pop\n        /* \"contracts/FundMe.sol\":1118:1119  0 */\n      0x00\n        /* \"contracts/FundMe.sol\":1104:1120  new address[](0) */\n      0xffffffffffffffff\n      dup2\n      gt\n      iszero\n      tag_47\n      jumpi\n      tag_48\n      tag_49\n      jump\t// in\n    tag_48:\n    tag_47:\n      mload(0x40)\n      swap1\n      dup1\n      dup3\n      mstore\n      dup1\n      0x20\n      mul\n      0x20\n      add\n      dup3\n      add\n      0x40\n      mstore\n      dup1\n      iszero\n      tag_50\n      jumpi\n      dup2\n      0x20\n      add\n      0x20\n      dup3\n      mul\n      dup1\n      calldatasize\n      dup4\n      calldatacopy\n      dup1\n      dup3\n      add\n      swap2\n      pop\n      pop\n      swap1\n      pop\n    tag_50:\n      pop\n        /* \"contracts/FundMe.sol\":1094:1101  funders */\n      0x01\n        /* \"contracts/FundMe.sol\":1094:1120  funders = new address[](0) */\n      swap1\n      dup1\n      mload\n      swap1\n      0x20\n      add\n      swap1\n      tag_51\n      swap3\n      swap2\n      swap1\n      tag_52\n      jump\t// in\n    tag_51:\n      pop\n        /* \"contracts/FundMe.sol\":1394:1410  bool callSuccess */\n      0x00\n        /* \"contracts/FundMe.sol\":1424:1434  msg.sender */\n      caller\n        /* \"contracts/FundMe.sol\":1416:1440  payable(msg.sender).call */\n      0xffffffffffffffffffffffffffffffffffffffff\n      and\n        /* \"contracts/FundMe.sol\":1448:1469  address(this).balance */\n      selfbalance\n        /* \"contracts/FundMe.sol\":1416:1474  payable(msg.sender).call{value: address(this).balance}(\"\") */\n      mload(0x40)\n      tag_53\n      swap1\n      tag_54\n      jump\t// in\n    tag_53:\n      0x00\n      mload(0x40)\n      dup1\n      dup4\n      sub\n      dup2\n      dup6\n      dup8\n      gas\n      call\n      swap3\n      pop\n      pop\n      pop\n      returndatasize\n      dup1\n      0x00\n      dup2\n      eq\n      tag_57\n      jumpi\n      mload(0x40)\n      swap2\n      pop\n      and(add(returndatasize, 0x3f), not(0x1f))\n      dup3\n      add\n      0x40\n      mstore\n      returndatasize\n      dup3\n      mstore\n      returndatasize\n      0x00\n      0x20\n      dup5\n      add\n      returndatacopy\n      jump(tag_56)\n    tag_57:\n      0x60\n      swap2\n      pop\n    tag_56:\n      pop\n        /* \"contracts/FundMe.sol\":1393:1474  (bool callSuccess, ) = payable(msg.sender).call{value: address(this).balance}(\"\") */\n      pop\n      swap1\n      pop\n        /* \"contracts/FundMe.sol\":1493:1504  callSuccess */\n      dup1\n        /* \"contracts/FundMe.sol\":1485:1520  require(callSuccess, \"Call Failed\") */\n      tag_58\n      jumpi\n      mload(0x40)\n      0x08c379a000000000000000000000000000000000000000000000000000000000\n      dup2\n      mstore\n      0x04\n      add\n      tag_59\n      swap1\n      tag_60\n      jump\t// in\n    tag_59:\n      mload(0x40)\n      dup1\n      swap2\n      sub\n      swap1\n      revert\n    tag_58:\n        /* \"contracts/FundMe.sol\":855:1528  {... */\n      pop\n        /* \"contracts/FundMe.sol\":818:1528  function withdraw() public OnlyOwner {... */\n      jump\t// out\n        /* \"contracts/FundMe.sol\":324:381  mapping (address => uint256) public addressToAmountFunded */\n    tag_20:\n      mstore(0x20, 0x02)\n      dup1\n      0x00\n      mstore\n      keccak256(0x00, 0x40)\n      0x00\n      swap2\n      pop\n      swap1\n      pop\n      sload\n      dup2\n      jump\t// out\n        /* \"contracts/FundMe.sol\":390:410  address public owner */\n    tag_24:\n      0x03\n      0x00\n      swap1\n      sload\n      swap1\n      0x0100\n      exp\n      swap1\n      div\n      0xffffffffffffffffffffffffffffffffffffffff\n      and\n      dup2\n      jump\t// out\n        /* \"contracts/FundMe.sol\":479:812  function fund() public payable {... */\n    tag_28:\n        /* \"contracts/FundMe.sol\":679:689  minimumUsd */\n      sload(0x00)\n        /* \"contracts/FundMe.sol\":646:675  msg.value.getConversionRate() */\n      tag_62\n        /* \"contracts/FundMe.sol\":646:655  msg.value */\n      callvalue\n        /* \"contracts/FundMe.sol\":646:673  msg.value.getConversionRate */\n      tag_63\n        /* \"contracts/FundMe.sol\":646:675  msg.value.getConversionRate() */\n      jump\t// in\n    tag_62:\n        /* \"contracts/FundMe.sol\":646:689  msg.value.getConversionRate() >= minimumUsd */\n      lt\n      iszero\n        /* \"contracts/FundMe.sol\":638:712  require(msg.value.getConversionRate() >= minimumUsd, \"Didn't send enough\") */\n      tag_64\n      jumpi\n      mload(0x40)\n      0x08c379a000000000000000000000000000000000000000000000000000000000\n      dup2\n      mstore\n      0x04\n      add\n      tag_65\n      swap1\n      tag_66\n      jump\t// in\n    tag_65:\n      mload(0x40)\n      dup1\n      swap2\n      sub\n      swap1\n      revert\n    tag_64:\n        /* \"contracts/FundMe.sol\":723:730  funders */\n      0x01\n        /* \"contracts/FundMe.sol\":736:746  msg.sender */\n      caller\n        /* \"contracts/FundMe.sol\":723:747  funders.push(msg.sender) */\n      swap1\n      dup1\n      0x01\n      dup2\n      sload\n      add\n      dup1\n      dup3\n      sstore\n      dup1\n      swap2\n      pop\n      pop\n      0x01\n      swap1\n      sub\n      swap1\n      0x00\n      mstore\n      keccak256(0x00, 0x20)\n      add\n      0x00\n      swap1\n      swap2\n      swap1\n      swap2\n      swap1\n      swap2\n      0x0100\n      exp\n      dup2\n      sload\n      dup2\n      0xffffffffffffffffffffffffffffffffffffffff\n      mul\n      not\n      and\n      swap1\n      dup4\n      0xffffffffffffffffffffffffffffffffffffffff\n      and\n      mul\n      or\n      swap1\n      sstore\n      pop\n        /* \"contracts/FundMe.sol\":795:804  msg.value */\n      callvalue\n        /* \"contracts/FundMe.sol\":758:779  addressToAmountFunded */\n      0x02\n        /* \"contracts/FundMe.sol\":758:791  addressToAmountFunded[msg.sender] */\n      0x00\n        /* \"contracts/FundMe.sol\":780:790  msg.sender */\n      caller\n        /* \"contracts/FundMe.sol\":758:791  addressToAmountFunded[msg.sender] */\n      0xffffffffffffffffffffffffffffffffffffffff\n      and\n      0xffffffffffffffffffffffffffffffffffffffff\n      and\n      dup2\n      mstore\n      0x20\n      add\n      swap1\n      dup2\n      mstore\n      0x20\n      add\n      0x00\n      keccak256\n      0x00\n        /* \"contracts/FundMe.sol\":758:804  addressToAmountFunded[msg.sender] += msg.value */\n      dup3\n      dup3\n      sload\n      tag_68\n      swap2\n      swap1\n      tag_69\n      jump\t// in\n    tag_68:\n      swap3\n      pop\n      pop\n      dup2\n      swap1\n      sstore\n      pop\n        /* \"contracts/FundMe.sol\":479:812  function fund() public payable {... */\n      jump\t// out\n        /* \"contracts/FundMe.sol\":293:317  address[] public funders */\n    tag_33:\n      0x01\n      dup2\n      dup2\n      sload\n      dup2\n      lt\n      tag_70\n      jumpi\n      0x00\n      dup1\n      revert\n    tag_70:\n      swap1\n      0x00\n      mstore\n      keccak256(0x00, 0x20)\n      add\n      0x00\n      swap2\n      pop\n      sload\n      swap1\n      0x0100\n      exp\n      swap1\n      div\n      0xffffffffffffffffffffffffffffffffffffffff\n      and\n      dup2\n      jump\t// out\n        /* \"contracts/PriceConverter.sol\":754:976  function getConversionRate(uint256 ethAmount) internal view returns(uint256) {... */\n    tag_63:\n        /* \"contracts/PriceConverter.sol\":822:829  uint256 */\n      0x00\n        /* \"contracts/PriceConverter.sol\":842:858  uint256 ethPrice */\n      0x00\n        /* \"contracts/PriceConverter.sol\":861:871  getPrice() */\n      tag_73\n        /* \"contracts/PriceConverter.sol\":861:869  getPrice */\n      tag_74\n        /* \"contracts/PriceConverter.sol\":861:871  getPrice() */\n      jump\t// in\n    tag_73:\n        /* \"contracts/PriceConverter.sol\":842:871  uint256 ethPrice = getPrice() */\n      swap1\n      pop\n        /* \"contracts/PriceConverter.sol\":882:904  uint256 ethAmountInUsd */\n      0x00\n        /* \"contracts/PriceConverter.sol\":932:936  1e18 */\n      0x0de0b6b3a7640000\n        /* \"contracts/PriceConverter.sol\":919:928  ethAmount */\n      dup5\n        /* \"contracts/PriceConverter.sol\":908:916  ethPrice */\n      dup4\n        /* \"contracts/PriceConverter.sol\":908:928  ethPrice * ethAmount */\n      tag_75\n      swap2\n      swap1\n      tag_76\n      jump\t// in\n    tag_75:\n        /* \"contracts/PriceConverter.sol\":907:936  (ethPrice * ethAmount) / 1e18 */\n      tag_77\n      swap2\n      swap1\n      tag_78\n      jump\t// in\n    tag_77:\n        /* \"contracts/PriceConverter.sol\":882:936  uint256 ethAmountInUsd = (ethPrice * ethAmount) / 1e18 */\n      swap1\n      pop\n        /* \"contracts/PriceConverter.sol\":954:968  ethAmountInUsd */\n      dup1\n        /* \"contracts/PriceConverter.sol\":947:968  return ethAmountInUsd */\n      swap3\n      pop\n      pop\n      pop\n        /* \"contracts/PriceConverter.sol\":754:976  function getConversionRate(uint256 ethAmount) internal view returns(uint256) {... */\n      swap2\n      swap1\n      pop\n      jump\t// out\n        /* \"contracts/PriceConverter.sol\":183:530  function getPrice() internal view returns(uint256) {... */\n    tag_74:\n        /* \"contracts/PriceConverter.sol\":225:232  uint256 */\n      0x00\n        /* \"contracts/PriceConverter.sol\":326:357  AggregatorV3Interface priceFeed */\n      0x00\n        /* \"contracts/PriceConverter.sol\":382:424  0x694AA1769357215DE4FAC081bf1f309aDC325306 */\n      0x694aa1769357215de4fac081bf1f309adc325306\n        /* \"contracts/PriceConverter.sol\":326:425  AggregatorV3Interface priceFeed = AggregatorV3Interface(0x694AA1769357215DE4FAC081bf1f309aDC325306) */\n      swap1\n      pop\n        /* \"contracts/PriceConverter.sol\":439:451  int256 price */\n      0x00\n        /* \"contracts/PriceConverter.sol\":458:467  priceFeed */\n      dup2\n        /* \"contracts/PriceConverter.sol\":458:483  priceFeed.latestRoundData */\n      0xffffffffffffffffffffffffffffffffffffffff\n      and\n      0xfeaf968c\n        /* \"contracts/PriceConverter.sol\":458:485  priceFeed.latestRoundData() */\n      mload(0x40)\n      dup2\n      0xffffffff\n      and\n      0xe0\n      shl\n      dup2\n      mstore\n      0x04\n      add\n      0xa0\n      mload(0x40)\n      dup1\n      dup4\n      sub\n      dup2\n      dup7\n      gas\n      staticcall\n      iszero\n      dup1\n      iszero\n      tag_81\n      jumpi\n      returndatacopy(0x00, 0x00, returndatasize)\n      revert(0x00, returndatasize)\n    tag_81:\n      pop\n      pop\n      pop\n      pop\n      mload(0x40)\n      returndatasize\n      not(0x1f)\n      0x1f\n      dup3\n      add\n      and\n      dup3\n      add\n      dup1\n      0x40\n      mstore\n      pop\n      dup2\n      add\n      swap1\n      tag_82\n      swap2\n      swap1\n      tag_83\n      jump\t// in\n    tag_82:\n        /* \"contracts/PriceConverter.sol\":436:485  (, int256 price,,,) = priceFeed.latestRoundData() */\n      pop\n      pop\n      pop\n      swap2\n      pop\n      pop\n        /* \"contracts/PriceConverter.sol\":517:521  1e10 */\n      0x02540be400\n        /* \"contracts/PriceConverter.sol\":511:516  price */\n      dup2\n        /* \"contracts/PriceConverter.sol\":511:521  price*1e10 */\n      tag_84\n      swap2\n      swap1\n      tag_85\n      jump\t// in\n    tag_84:\n        /* \"contracts/PriceConverter.sol\":496:522  return uint256(price*1e10) */\n      swap3\n      pop\n      pop\n      pop\n        /* \"contracts/PriceConverter.sol\":183:530  function getPrice() internal view returns(uint256) {... */\n      swap1\n      jump\t// out\n    tag_52:\n      dup3\n      dup1\n      sload\n      dup3\n      dup3\n      sstore\n      swap1\n      0x00\n      mstore\n      keccak256(0x00, 0x20)\n      swap1\n      dup2\n      add\n      swap3\n      dup3\n      iszero\n      tag_86\n      jumpi\n      swap2\n      0x20\n      mul\n      dup3\n      add\n    tag_87:\n      dup3\n      dup2\n      gt\n      iszero\n      tag_88\n      jumpi\n      dup3\n      mload\n      dup3\n      exp(0x0100, 0x00)\n      dup2\n      sload\n      dup2\n      0xffffffffffffffffffffffffffffffffffffffff\n      mul\n      not\n      and\n      swap1\n      dup4\n      0xffffffffffffffffffffffffffffffffffffffff\n      and\n      mul\n      or\n      swap1\n      sstore\n      pop\n      swap2\n      0x20\n      add\n      swap2\n      swap1\n      0x01\n      add\n      swap1\n      jump(tag_87)\n    tag_88:\n    tag_86:\n      pop\n      swap1\n      pop\n      tag_89\n      swap2\n      swap1\n      tag_90\n      jump\t// in\n    tag_89:\n      pop\n      swap1\n      jump\t// out\n    tag_90:\n    tag_91:\n      dup1\n      dup3\n      gt\n      iszero\n      tag_92\n      jumpi\n      0x00\n      dup2\n      0x00\n      swap1\n      sstore\n      pop\n      0x01\n      add\n      jump(tag_91)\n    tag_92:\n      pop\n      swap1\n      jump\t// out\n        /* \"#utility.yul\":7:84   */\n    tag_93:\n        /* \"#utility.yul\":44:51   */\n      0x00\n        /* \"#utility.yul\":73:78   */\n      dup2\n        /* \"#utility.yul\":62:78   */\n      swap1\n      pop\n        /* \"#utility.yul\":7:84   */\n      swap2\n      swap1\n      pop\n      jump\t// out\n        /* \"#utility.yul\":90:208   */\n    tag_94:\n        /* \"#utility.yul\":177:201   */\n      tag_127\n        /* \"#utility.yul\":195:200   */\n      dup2\n        /* \"#utility.yul\":177:201   */\n      tag_93\n      jump\t// in\n    tag_127:\n        /* \"#utility.yul\":172:175   */\n      dup3\n        /* \"#utility.yul\":165:202   */\n      mstore\n        /* \"#utility.yul\":90:208   */\n      pop\n      pop\n      jump\t// out\n        /* \"#utility.yul\":214:436   */\n    tag_12:\n        /* \"#utility.yul\":307:311   */\n      0x00\n        /* \"#utility.yul\":345:347   */\n      0x20\n        /* \"#utility.yul\":334:343   */\n      dup3\n        /* \"#utility.yul\":330:348   */\n      add\n        /* \"#utility.yul\":322:348   */\n      swap1\n      pop\n        /* \"#utility.yul\":358:429   */\n      tag_129\n        /* \"#utility.yul\":426:427   */\n      0x00\n        /* \"#utility.yul\":415:424   */\n      dup4\n        /* \"#utility.yul\":411:428   */\n      add\n        /* \"#utility.yul\":402:408   */\n      dup5\n        /* \"#utility.yul\":358:429   */\n      tag_94\n      jump\t// in\n    tag_129:\n        /* \"#utility.yul\":214:436   */\n      swap3\n      swap2\n      pop\n      pop\n      jump\t// out\n        /* \"#utility.yul\":523:640   */\n    tag_96:\n        /* \"#utility.yul\":632:633   */\n      0x00\n        /* \"#utility.yul\":629:630   */\n      0x00\n        /* \"#utility.yul\":622:634   */\n      revert\n        /* \"#utility.yul\":769:895   */\n    tag_98:\n        /* \"#utility.yul\":806:813   */\n      0x00\n        /* \"#utility.yul\":846:888   */\n      0xffffffffffffffffffffffffffffffffffffffff\n        /* \"#utility.yul\":839:844   */\n      dup3\n        /* \"#utility.yul\":835:889   */\n      and\n        /* \"#utility.yul\":824:889   */\n      swap1\n      pop\n        /* \"#utility.yul\":769:895   */\n      swap2\n      swap1\n      pop\n      jump\t// out\n        /* \"#utility.yul\":901:997   */\n    tag_99:\n        /* \"#utility.yul\":938:945   */\n      0x00\n        /* \"#utility.yul\":967:991   */\n      tag_135\n        /* \"#utility.yul\":985:990   */\n      dup3\n        /* \"#utility.yul\":967:991   */\n      tag_98\n      jump\t// in\n    tag_135:\n        /* \"#utility.yul\":956:991   */\n      swap1\n      pop\n        /* \"#utility.yul\":901:997   */\n      swap2\n      swap1\n      pop\n      jump\t// out\n        /* \"#utility.yul\":1003:1125   */\n    tag_100:\n        /* \"#utility.yul\":1076:1100   */\n      tag_137\n        /* \"#utility.yul\":1094:1099   */\n      dup2\n        /* \"#utility.yul\":1076:1100   */\n      tag_99\n      jump\t// in\n    tag_137:\n        /* \"#utility.yul\":1069:1074   */\n      dup2\n        /* \"#utility.yul\":1066:1101   */\n      eq\n        /* \"#utility.yul\":1056:1119   */\n      tag_138\n      jumpi\n        /* \"#utility.yul\":1115:1116   */\n      0x00\n        /* \"#utility.yul\":1112:1113   */\n      0x00\n        /* \"#utility.yul\":1105:1117   */\n      revert\n        /* \"#utility.yul\":1056:1119   */\n    tag_138:\n        /* \"#utility.yul\":1003:1125   */\n      pop\n      jump\t// out\n        /* \"#utility.yul\":1131:1270   */\n    tag_101:\n        /* \"#utility.yul\":1177:1182   */\n      0x00\n        /* \"#utility.yul\":1215:1221   */\n      dup2\n        /* \"#utility.yul\":1202:1222   */\n      calldataload\n        /* \"#utility.yul\":1193:1222   */\n      swap1\n      pop\n        /* \"#utility.yul\":1231:1264   */\n      tag_140\n        /* \"#utility.yul\":1258:1263   */\n      dup2\n        /* \"#utility.yul\":1231:1264   */\n      tag_100\n      jump\t// in\n    tag_140:\n        /* \"#utility.yul\":1131:1270   */\n      swap3\n      swap2\n      pop\n      pop\n      jump\t// out\n        /* \"#utility.yul\":1276:1605   */\n    tag_19:\n        /* \"#utility.yul\":1335:1341   */\n      0x00\n        /* \"#utility.yul\":1384:1386   */\n      0x20\n        /* \"#utility.yul\":1372:1381   */\n      dup3\n        /* \"#utility.yul\":1363:1370   */\n      dup5\n        /* \"#utility.yul\":1359:1382   */\n      sub\n        /* \"#utility.yul\":1355:1387   */\n      slt\n        /* \"#utility.yul\":1352:1471   */\n      iszero\n      tag_142\n      jumpi\n        /* \"#utility.yul\":1390:1469   */\n      tag_143\n      tag_96\n      jump\t// in\n    tag_143:\n        /* \"#utility.yul\":1352:1471   */\n    tag_142:\n        /* \"#utility.yul\":1510:1511   */\n      0x00\n        /* \"#utility.yul\":1535:1588   */\n      tag_144\n        /* \"#utility.yul\":1580:1587   */\n      dup5\n        /* \"#utility.yul\":1571:1577   */\n      dup3\n        /* \"#utility.yul\":1560:1569   */\n      dup6\n        /* \"#utility.yul\":1556:1578   */\n      add\n        /* \"#utility.yul\":1535:1588   */\n      tag_101\n      jump\t// in\n    tag_144:\n        /* \"#utility.yul\":1525:1588   */\n      swap2\n      pop\n        /* \"#utility.yul\":1481:1598   */\n      pop\n        /* \"#utility.yul\":1276:1605   */\n      swap3\n      swap2\n      pop\n      pop\n      jump\t// out\n        /* \"#utility.yul\":1611:1729   */\n    tag_102:\n        /* \"#utility.yul\":1698:1722   */\n      tag_146\n        /* \"#utility.yul\":1716:1721   */\n      dup2\n        /* \"#utility.yul\":1698:1722   */\n      tag_99\n      jump\t// in\n    tag_146:\n        /* \"#utility.yul\":1693:1696   */\n      dup3\n        /* \"#utility.yul\":1686:1723   */\n      mstore\n        /* \"#utility.yul\":1611:1729   */\n      pop\n      pop\n      jump\t// out\n        /* \"#utility.yul\":1735:1957   */\n    tag_26:\n        /* \"#utility.yul\":1828:1832   */\n      0x00\n        /* \"#utility.yul\":1866:1868   */\n      0x20\n        /* \"#utility.yul\":1855:1864   */\n      dup3\n        /* \"#utility.yul\":1851:1869   */\n      add\n        /* \"#utility.yul\":1843:1869   */\n      swap1\n      pop\n        /* \"#utility.yul\":1879:1950   */\n      tag_148\n        /* \"#utility.yul\":1947:1948   */\n      0x00\n        /* \"#utility.yul\":1936:1945   */\n      dup4\n        /* \"#utility.yul\":1932:1949   */\n      add\n        /* \"#utility.yul\":1923:1929   */\n      dup5\n        /* \"#utility.yul\":1879:1950   */\n      tag_102\n      jump\t// in\n    tag_148:\n        /* \"#utility.yul\":1735:1957   */\n      swap3\n      swap2\n      pop\n      pop\n      jump\t// out\n        /* \"#utility.yul\":1963:2085   */\n    tag_103:\n        /* \"#utility.yul\":2036:2060   */\n      tag_150\n        /* \"#utility.yul\":2054:2059   */\n      dup2\n        /* \"#utility.yul\":2036:2060   */\n      tag_93\n      jump\t// in\n    tag_150:\n        /* \"#utility.yul\":2029:2034   */\n      dup2\n        /* \"#utility.yul\":2026:2061   */\n      eq\n        /* \"#utility.yul\":2016:2079   */\n      tag_151\n      jumpi\n        /* \"#utility.yul\":2075:2076   */\n      0x00\n        /* \"#utility.yul\":2072:2073   */\n      0x00\n        /* \"#utility.yul\":2065:2077   */\n      revert\n        /* \"#utility.yul\":2016:2079   */\n    tag_151:\n        /* \"#utility.yul\":1963:2085   */\n      pop\n      jump\t// out\n        /* \"#utility.yul\":2091:2230   */\n    tag_104:\n        /* \"#utility.yul\":2137:2142   */\n      0x00\n        /* \"#utility.yul\":2175:2181   */\n      dup2\n        /* \"#utility.yul\":2162:2182   */\n      calldataload\n        /* \"#utility.yul\":2153:2182   */\n      swap1\n      pop\n        /* \"#utility.yul\":2191:2224   */\n      tag_153\n        /* \"#utility.yul\":2218:2223   */\n      dup2\n        /* \"#utility.yul\":2191:2224   */\n      tag_103\n      jump\t// in\n    tag_153:\n        /* \"#utility.yul\":2091:2230   */\n      swap3\n      swap2\n      pop\n      pop\n      jump\t// out\n        /* \"#utility.yul\":2236:2565   */\n    tag_32:\n        /* \"#utility.yul\":2295:2301   */\n      0x00\n        /* \"#utility.yul\":2344:2346   */\n      0x20\n        /* \"#utility.yul\":2332:2341   */\n      dup3\n        /* \"#utility.yul\":2323:2330   */\n      dup5\n        /* \"#utility.yul\":2319:2342   */\n      sub\n        /* \"#utility.yul\":2315:2347   */\n      slt\n        /* \"#utility.yul\":2312:2431   */\n      iszero\n      tag_155\n      jumpi\n        /* \"#utility.yul\":2350:2429   */\n      tag_156\n      tag_96\n      jump\t// in\n    tag_156:\n        /* \"#utility.yul\":2312:2431   */\n    tag_155:\n        /* \"#utility.yul\":2470:2471   */\n      0x00\n        /* \"#utility.yul\":2495:2548   */\n      tag_157\n        /* \"#utility.yul\":2540:2547   */\n      dup5\n        /* \"#utility.yul\":2531:2537   */\n      dup3\n        /* \"#utility.yul\":2520:2529   */\n      dup6\n        /* \"#utility.yul\":2516:2538   */\n      add\n        /* \"#utility.yul\":2495:2548   */\n      tag_104\n      jump\t// in\n    tag_157:\n        /* \"#utility.yul\":2485:2548   */\n      swap2\n      pop\n        /* \"#utility.yul\":2441:2558   */\n      pop\n        /* \"#utility.yul\":2236:2565   */\n      swap3\n      swap2\n      pop\n      pop\n      jump\t// out\n        /* \"#utility.yul\":2571:2740   */\n    tag_105:\n        /* \"#utility.yul\":2655:2666   */\n      0x00\n        /* \"#utility.yul\":2689:2695   */\n      dup3\n        /* \"#utility.yul\":2684:2687   */\n      dup3\n        /* \"#utility.yul\":2677:2696   */\n      mstore\n        /* \"#utility.yul\":2729:2733   */\n      0x20\n        /* \"#utility.yul\":2724:2727   */\n      dup3\n        /* \"#utility.yul\":2720:2734   */\n      add\n        /* \"#utility.yul\":2705:2734   */\n      swap1\n      pop\n        /* \"#utility.yul\":2571:2740   */\n      swap3\n      swap2\n      pop\n      pop\n      jump\t// out\n        /* \"#utility.yul\":2746:2916   */\n    tag_106:\n        /* \"#utility.yul\":2886:2908   */\n      0x53656e646572206973206e6f74206f776e657221000000000000000000000000\n        /* \"#utility.yul\":2882:2883   */\n      0x00\n        /* \"#utility.yul\":2874:2880   */\n      dup3\n        /* \"#utility.yul\":2870:2884   */\n      add\n        /* \"#utility.yul\":2863:2909   */\n      mstore\n        /* \"#utility.yul\":2746:2916   */\n      pop\n      jump\t// out\n        /* \"#utility.yul\":2922:3288   */\n    tag_107:\n        /* \"#utility.yul\":3064:3067   */\n      0x00\n        /* \"#utility.yul\":3085:3152   */\n      tag_161\n        /* \"#utility.yul\":3149:3151   */\n      0x14\n        /* \"#utility.yul\":3144:3147   */\n      dup4\n        /* \"#utility.yul\":3085:3152   */\n      tag_105\n      jump\t// in\n    tag_161:\n        /* \"#utility.yul\":3078:3152   */\n      swap2\n      pop\n        /* \"#utility.yul\":3161:3254   */\n      tag_162\n        /* \"#utility.yul\":3250:3253   */\n      dup3\n        /* \"#utility.yul\":3161:3254   */\n      tag_106\n      jump\t// in\n    tag_162:\n        /* \"#utility.yul\":3279:3281   */\n      0x20\n        /* \"#utility.yul\":3274:3277   */\n      dup3\n        /* \"#utility.yul\":3270:3282   */\n      add\n        /* \"#utility.yul\":3263:3282   */\n      swap1\n      pop\n        /* \"#utility.yul\":2922:3288   */\n      swap2\n      swap1\n      pop\n      jump\t// out\n        /* \"#utility.yul\":3294:3713   */\n    tag_38:\n        /* \"#utility.yul\":3460:3464   */\n      0x00\n        /* \"#utility.yul\":3498:3500   */\n      0x20\n        /* \"#utility.yul\":3487:3496   */\n      dup3\n        /* \"#utility.yul\":3483:3501   */\n      add\n        /* \"#utility.yul\":3475:3501   */\n      swap1\n      pop\n        /* \"#utility.yul\":3547:3556   */\n      dup2\n        /* \"#utility.yul\":3541:3545   */\n      dup2\n        /* \"#utility.yul\":3537:3557   */\n      sub\n        /* \"#utility.yul\":3533:3534   */\n      0x00\n        /* \"#utility.yul\":3522:3531   */\n      dup4\n        /* \"#utility.yul\":3518:3535   */\n      add\n        /* \"#utility.yul\":3511:3558   */\n      mstore\n        /* \"#utility.yul\":3575:3706   */\n      tag_164\n        /* \"#utility.yul\":3701:3705   */\n      dup2\n        /* \"#utility.yul\":3575:3706   */\n      tag_107\n      jump\t// in\n    tag_164:\n        /* \"#utility.yul\":3567:3706   */\n      swap1\n      pop\n        /* \"#utility.yul\":3294:3713   */\n      swap2\n      swap1\n      pop\n      jump\t// out\n        /* \"#utility.yul\":3719:3899   */\n    tag_45:\n        /* \"#utility.yul\":3767:3844   */\n      0x4e487b7100000000000000000000000000000000000000000000000000000000\n        /* \"#utility.yul\":3764:3765   */\n      0x00\n        /* \"#utility.yul\":3757:3845   */\n      mstore\n        /* \"#utility.yul\":3864:3868   */\n      0x32\n        /* \"#utility.yul\":3861:3862   */\n      0x04\n        /* \"#utility.yul\":3854:3869   */\n      mstore\n        /* \"#utility.yul\":3888:3892   */\n      0x24\n        /* \"#utility.yul\":3885:3886   */\n      0x00\n        /* \"#utility.yul\":3878:3893   */\n      revert\n        /* \"#utility.yul\":3905:4085   */\n    tag_49:\n        /* \"#utility.yul\":3953:4030   */\n      0x4e487b7100000000000000000000000000000000000000000000000000000000\n        /* \"#utility.yul\":3950:3951   */\n      0x00\n        /* \"#utility.yul\":3943:4031   */\n      mstore\n        /* \"#utility.yul\":4050:4054   */\n      0x41\n        /* \"#utility.yul\":4047:4048   */\n      0x04\n        /* \"#utility.yul\":4040:4055   */\n      mstore\n        /* \"#utility.yul\":4074:4078   */\n      0x24\n        /* \"#utility.yul\":4071:4072   */\n      0x00\n        /* \"#utility.yul\":4064:4079   */\n      revert\n        /* \"#utility.yul\":4091:4238   */\n    tag_108:\n        /* \"#utility.yul\":4192:4203   */\n      0x00\n        /* \"#utility.yul\":4229:4232   */\n      dup2\n        /* \"#utility.yul\":4214:4232   */\n      swap1\n      pop\n        /* \"#utility.yul\":4091:4238   */\n      swap3\n      swap2\n      pop\n      pop\n      jump\t// out\n        /* \"#utility.yul\":4244:4358   */\n    tag_109:\n      pop\n      jump\t// out\n        /* \"#utility.yul\":4364:4762   */\n    tag_110:\n        /* \"#utility.yul\":4523:4526   */\n      0x00\n        /* \"#utility.yul\":4544:4627   */\n      tag_170\n        /* \"#utility.yul\":4625:4626   */\n      0x00\n        /* \"#utility.yul\":4620:4623   */\n      dup4\n        /* \"#utility.yul\":4544:4627   */\n      tag_108\n      jump\t// in\n    tag_170:\n        /* \"#utility.yul\":4537:4627   */\n      swap2\n      pop\n        /* \"#utility.yul\":4636:4729   */\n      tag_171\n        /* \"#utility.yul\":4725:4728   */\n      dup3\n        /* \"#utility.yul\":4636:4729   */\n      tag_109\n      jump\t// in\n    tag_171:\n        /* \"#utility.yul\":4754:4755   */\n      0x00\n        /* \"#utility.yul\":4749:4752   */\n      dup3\n        /* \"#utility.yul\":4745:4756   */\n      add\n        /* \"#utility.yul\":4738:4756   */\n      swap1\n      pop\n        /* \"#utility.yul\":4364:4762   */\n      swap2\n      swap1\n      pop\n      jump\t// out\n        /* \"#utility.yul\":4768:5147   */\n    tag_54:\n        /* \"#utility.yul\":4952:4955   */\n      0x00\n        /* \"#utility.yul\":4974:5121   */\n      tag_173\n        /* \"#utility.yul\":5117:5120   */\n      dup3\n        /* \"#utility.yul\":4974:5121   */\n      tag_110\n      jump\t// in\n    tag_173:\n        /* \"#utility.yul\":4967:5121   */\n      swap2\n      pop\n        /* \"#utility.yul\":5138:5141   */\n      dup2\n        /* \"#utility.yul\":5131:5141   */\n      swap1\n      pop\n        /* \"#utility.yul\":4768:5147   */\n      swap2\n      swap1\n      pop\n      jump\t// out\n        /* \"#utility.yul\":5153:5314   */\n    tag_111:\n        /* \"#utility.yul\":5293:5306   */\n      0x43616c6c204661696c6564000000000000000000000000000000000000000000\n        /* \"#utility.yul\":5289:5290   */\n      0x00\n        /* \"#utility.yul\":5281:5287   */\n      dup3\n        /* \"#utility.yul\":5277:5291   */\n      add\n        /* \"#utility.yul\":5270:5307   */\n      mstore\n        /* \"#utility.yul\":5153:5314   */\n      pop\n      jump\t// out\n        /* \"#utility.yul\":5320:5686   */\n    tag_112:\n        /* \"#utility.yul\":5462:5465   */\n      0x00\n        /* \"#utility.yul\":5483:5550   */\n      tag_176\n        /* \"#utility.yul\":5547:5549   */\n      0x0b\n        /* \"#utility.yul\":5542:5545   */\n      dup4\n        /* \"#utility.yul\":5483:5550   */\n      tag_105\n      jump\t// in\n    tag_176:\n        /* \"#utility.yul\":5476:5550   */\n      swap2\n      pop\n        /* \"#utility.yul\":5559:5652   */\n      tag_177\n        /* \"#utility.yul\":5648:5651   */\n      dup3\n        /* \"#utility.yul\":5559:5652   */\n      tag_111\n      jump\t// in\n    tag_177:\n        /* \"#utility.yul\":5677:5679   */\n      0x20\n        /* \"#utility.yul\":5672:5675   */\n      dup3\n        /* \"#utility.yul\":5668:5680   */\n      add\n        /* \"#utility.yul\":5661:5680   */\n      swap1\n      pop\n        /* \"#utility.yul\":5320:5686   */\n      swap2\n      swap1\n      pop\n      jump\t// out\n        /* \"#utility.yul\":5692:6111   */\n    tag_60:\n        /* \"#utility.yul\":5858:5862   */\n      0x00\n        /* \"#utility.yul\":5896:5898   */\n      0x20\n        /* \"#utility.yul\":5885:5894   */\n      dup3\n        /* \"#utility.yul\":5881:5899   */\n      add\n        /* \"#utility.yul\":5873:5899   */\n      swap1\n      pop\n        /* \"#utility.yul\":5945:5954   */\n      dup2\n        /* \"#utility.yul\":5939:5943   */\n      dup2\n        /* \"#utility.yul\":5935:5955   */\n      sub\n        /* \"#utility.yul\":5931:5932   */\n      0x00\n        /* \"#utility.yul\":5920:5929   */\n      dup4\n        /* \"#utility.yul\":5916:5933   */\n      add\n        /* \"#utility.yul\":5909:5956   */\n      mstore\n        /* \"#utility.yul\":5973:6104   */\n      tag_179\n        /* \"#utility.yul\":6099:6103   */\n      dup2\n        /* \"#utility.yul\":5973:6104   */\n      tag_112\n      jump\t// in\n    tag_179:\n        /* \"#utility.yul\":5965:6104   */\n      swap1\n      pop\n        /* \"#utility.yul\":5692:6111   */\n      swap2\n      swap1\n      pop\n      jump\t// out\n        /* \"#utility.yul\":6117:6285   */\n    tag_113:\n        /* \"#utility.yul\":6257:6277   */\n      0x4469646e27742073656e6420656e6f7567680000000000000000000000000000\n        /* \"#utility.yul\":6253:6254   */\n      0x00\n        /* \"#utility.yul\":6245:6251   */\n      dup3\n        /* \"#utility.yul\":6241:6255   */\n      add\n        /* \"#utility.yul\":6234:6278   */\n      mstore\n        /* \"#utility.yul\":6117:6285   */\n      pop\n      jump\t// out\n        /* \"#utility.yul\":6291:6657   */\n    tag_114:\n        /* \"#utility.yul\":6433:6436   */\n      0x00\n        /* \"#utility.yul\":6454:6521   */\n      tag_182\n        /* \"#utility.yul\":6518:6520   */\n      0x12\n        /* \"#utility.yul\":6513:6516   */\n      dup4\n        /* \"#utility.yul\":6454:6521   */\n      tag_105\n      jump\t// in\n    tag_182:\n        /* \"#utility.yul\":6447:6521   */\n      swap2\n      pop\n        /* \"#utility.yul\":6530:6623   */\n      tag_183\n        /* \"#utility.yul\":6619:6622   */\n      dup3\n        /* \"#utility.yul\":6530:6623   */\n      tag_113\n      jump\t// in\n    tag_183:\n        /* \"#utility.yul\":6648:6650   */\n      0x20\n        /* \"#utility.yul\":6643:6646   */\n      dup3\n        /* \"#utility.yul\":6639:6651   */\n      add\n        /* \"#utility.yul\":6632:6651   */\n      swap1\n      pop\n        /* \"#utility.yul\":6291:6657   */\n      swap2\n      swap1\n      pop\n      jump\t// out\n        /* \"#utility.yul\":6663:7082   */\n    tag_66:\n        /* \"#utility.yul\":6829:6833   */\n      0x00\n        /* \"#utility.yul\":6867:6869   */\n      0x20\n        /* \"#utility.yul\":6856:6865   */\n      dup3\n        /* \"#utility.yul\":6852:6870   */\n      add\n        /* \"#utility.yul\":6844:6870   */\n      swap1\n      pop\n        /* \"#utility.yul\":6916:6925   */\n      dup2\n        /* \"#utility.yul\":6910:6914   */\n      dup2\n        /* \"#utility.yul\":6906:6926   */\n      sub\n        /* \"#utility.yul\":6902:6903   */\n      0x00\n        /* \"#utility.yul\":6891:6900   */\n      dup4\n        /* \"#utility.yul\":6887:6904   */\n      add\n        /* \"#utility.yul\":6880:6927   */\n      mstore\n        /* \"#utility.yul\":6944:7075   */\n      tag_185\n        /* \"#utility.yul\":7070:7074   */\n      dup2\n        /* \"#utility.yul\":6944:7075   */\n      tag_114\n      jump\t// in\n    tag_185:\n        /* \"#utility.yul\":6936:7075   */\n      swap1\n      pop\n        /* \"#utility.yul\":6663:7082   */\n      swap2\n      swap1\n      pop\n      jump\t// out\n        /* \"#utility.yul\":7088:7268   */\n    tag_115:\n        /* \"#utility.yul\":7136:7213   */\n      0x4e487b7100000000000000000000000000000000000000000000000000000000\n        /* \"#utility.yul\":7133:7134   */\n      0x00\n        /* \"#utility.yul\":7126:7214   */\n      mstore\n        /* \"#utility.yul\":7233:7237   */\n      0x11\n        /* \"#utility.yul\":7230:7231   */\n      0x04\n        /* \"#utility.yul\":7223:7238   */\n      mstore\n        /* \"#utility.yul\":7257:7261   */\n      0x24\n        /* \"#utility.yul\":7254:7255   */\n      0x00\n        /* \"#utility.yul\":7247:7262   */\n      revert\n        /* \"#utility.yul\":7274:7465   */\n    tag_69:\n        /* \"#utility.yul\":7314:7317   */\n      0x00\n        /* \"#utility.yul\":7333:7353   */\n      tag_188\n        /* \"#utility.yul\":7351:7352   */\n      dup3\n        /* \"#utility.yul\":7333:7353   */\n      tag_93\n      jump\t// in\n    tag_188:\n        /* \"#utility.yul\":7328:7353   */\n      swap2\n      pop\n        /* \"#utility.yul\":7367:7387   */\n      tag_189\n        /* \"#utility.yul\":7385:7386   */\n      dup4\n        /* \"#utility.yul\":7367:7387   */\n      tag_93\n      jump\t// in\n    tag_189:\n        /* \"#utility.yul\":7362:7387   */\n      swap3\n      pop\n        /* \"#utility.yul\":7410:7411   */\n      dup3\n        /* \"#utility.yul\":7407:7408   */\n      dup3\n        /* \"#utility.yul\":7403:7412   */\n      add\n        /* \"#utility.yul\":7396:7412   */\n      swap1\n      pop\n        /* \"#utility.yul\":7431:7434   */\n      dup1\n        /* \"#utility.yul\":7428:7429   */\n      dup3\n        /* \"#utility.yul\":7425:7435   */\n      gt\n        /* \"#utility.yul\":7422:7458   */\n      iszero\n      tag_190\n      jumpi\n        /* \"#utility.yul\":7438:7456   */\n      tag_191\n      tag_115\n      jump\t// in\n    tag_191:\n        /* \"#utility.yul\":7422:7458   */\n    tag_190:\n        /* \"#utility.yul\":7274:7465   */\n      swap3\n      swap2\n      pop\n      pop\n      jump\t// out\n        /* \"#utility.yul\":7471:7881   */\n    tag_76:\n        /* \"#utility.yul\":7511:7518   */\n      0x00\n        /* \"#utility.yul\":7534:7554   */\n      tag_193\n        /* \"#utility.yul\":7552:7553   */\n      dup3\n        /* \"#utility.yul\":7534:7554   */\n      tag_93\n      jump\t// in\n    tag_193:\n        /* \"#utility.yul\":7529:7554   */\n      swap2\n      pop\n        /* \"#utility.yul\":7568:7588   */\n      tag_194\n        /* \"#utility.yul\":7586:7587   */\n      dup4\n        /* \"#utility.yul\":7568:7588   */\n      tag_93\n      jump\t// in\n    tag_194:\n        /* \"#utility.yul\":7563:7588   */\n      swap3\n      pop\n        /* \"#utility.yul\":7623:7624   */\n      dup3\n        /* \"#utility.yul\":7620:7621   */\n      dup3\n        /* \"#utility.yul\":7616:7625   */\n      mul\n        /* \"#utility.yul\":7645:7675   */\n      tag_195\n        /* \"#utility.yul\":7663:7674   */\n      dup2\n        /* \"#utility.yul\":7645:7675   */\n      tag_93\n      jump\t// in\n    tag_195:\n        /* \"#utility.yul\":7634:7675   */\n      swap2\n      pop\n        /* \"#utility.yul\":7824:7825   */\n      dup3\n        /* \"#utility.yul\":7815:7822   */\n      dup3\n        /* \"#utility.yul\":7811:7826   */\n      div\n        /* \"#utility.yul\":7808:7809   */\n      dup5\n        /* \"#utility.yul\":7805:7827   */\n      eq\n        /* \"#utility.yul\":7785:7786   */\n      dup4\n        /* \"#utility.yul\":7778:7787   */\n      iszero\n        /* \"#utility.yul\":7758:7841   */\n      or\n        /* \"#utility.yul\":7735:7874   */\n      tag_196\n      jumpi\n        /* \"#utility.yul\":7854:7872   */\n      tag_197\n      tag_115\n      jump\t// in\n    tag_197:\n        /* \"#utility.yul\":7735:7874   */\n    tag_196:\n        /* \"#utility.yul\":7519:7881   */\n      pop\n        /* \"#utility.yul\":7471:7881   */\n      swap3\n      swap2\n      pop\n      pop\n      jump\t// out\n        /* \"#utility.yul\":7887:8067   */\n    tag_116:\n        /* \"#utility.yul\":7935:8012   */\n      0x4e487b7100000000000000000000000000000000000000000000000000000000\n        /* \"#utility.yul\":7932:7933   */\n      0x00\n        /* \"#utility.yul\":7925:8013   */\n      mstore\n        /* \"#utility.yul\":8032:8036   */\n      0x12\n        /* \"#utility.yul\":8029:8030   */\n      0x04\n        /* \"#utility.yul\":8022:8037   */\n      mstore\n        /* \"#utility.yul\":8056:8060   */\n      0x24\n        /* \"#utility.yul\":8053:8054   */\n      0x00\n        /* \"#utility.yul\":8046:8061   */\n      revert\n        /* \"#utility.yul\":8073:8258   */\n    tag_78:\n        /* \"#utility.yul\":8113:8114   */\n      0x00\n        /* \"#utility.yul\":8130:8150   */\n      tag_200\n        /* \"#utility.yul\":8148:8149   */\n      dup3\n        /* \"#utility.yul\":8130:8150   */\n      tag_93\n      jump\t// in\n    tag_200:\n        /* \"#utility.yul\":8125:8150   */\n      swap2\n      pop\n        /* \"#utility.yul\":8164:8184   */\n      tag_201\n        /* \"#utility.yul\":8182:8183   */\n      dup4\n        /* \"#utility.yul\":8164:8184   */\n      tag_93\n      jump\t// in\n    tag_201:\n        /* \"#utility.yul\":8159:8184   */\n      swap3\n      pop\n        /* \"#utility.yul\":8203:8204   */\n      dup3\n        /* \"#utility.yul\":8193:8228   */\n      tag_202\n      jumpi\n        /* \"#utility.yul\":8208:8226   */\n      tag_203\n      tag_116\n      jump\t// in\n    tag_203:\n        /* \"#utility.yul\":8193:8228   */\n    tag_202:\n        /* \"#utility.yul\":8250:8251   */\n      dup3\n        /* \"#utility.yul\":8247:8248   */\n      dup3\n        /* \"#utility.yul\":8243:8252   */\n      div\n        /* \"#utility.yul\":8238:8252   */\n      swap1\n      pop\n        /* \"#utility.yul\":8073:8258   */\n      swap3\n      swap2\n      pop\n      pop\n      jump\t// out\n        /* \"#utility.yul\":8264:8369   */\n    tag_117:\n        /* \"#utility.yul\":8300:8307   */\n      0x00\n        /* \"#utility.yul\":8340:8362   */\n      0xffffffffffffffffffff\n        /* \"#utility.yul\":8333:8338   */\n      dup3\n        /* \"#utility.yul\":8329:8363   */\n      and\n        /* \"#utility.yul\":8318:8363   */\n      swap1\n      pop\n        /* \"#utility.yul\":8264:8369   */\n      swap2\n      swap1\n      pop\n      jump\t// out\n        /* \"#utility.yul\":8375:8495   */\n    tag_118:\n        /* \"#utility.yul\":8447:8470   */\n      tag_206\n        /* \"#utility.yul\":8464:8469   */\n      dup2\n        /* \"#utility.yul\":8447:8470   */\n      tag_117\n      jump\t// in\n    tag_206:\n        /* \"#utility.yul\":8440:8445   */\n      dup2\n        /* \"#utility.yul\":8437:8471   */\n      eq\n        /* \"#utility.yul\":8427:8489   */\n      tag_207\n      jumpi\n        /* \"#utility.yul\":8485:8486   */\n      0x00\n        /* \"#utility.yul\":8482:8483   */\n      0x00\n        /* \"#utility.yul\":8475:8487   */\n      revert\n        /* \"#utility.yul\":8427:8489   */\n    tag_207:\n        /* \"#utility.yul\":8375:8495   */\n      pop\n      jump\t// out\n        /* \"#utility.yul\":8501:8642   */\n    tag_119:\n        /* \"#utility.yul\":8557:8562   */\n      0x00\n        /* \"#utility.yul\":8588:8594   */\n      dup2\n        /* \"#utility.yul\":8582:8595   */\n      mload\n        /* \"#utility.yul\":8573:8595   */\n      swap1\n      pop\n        /* \"#utility.yul\":8604:8636   */\n      tag_209\n        /* \"#utility.yul\":8630:8635   */\n      dup2\n        /* \"#utility.yul\":8604:8636   */\n      tag_118\n      jump\t// in\n    tag_209:\n        /* \"#utility.yul\":8501:8642   */\n      swap3\n      swap2\n      pop\n      pop\n      jump\t// out\n        /* \"#utility.yul\":8648:8724   */\n    tag_120:\n        /* \"#utility.yul\":8684:8691   */\n      0x00\n        /* \"#utility.yul\":8713:8718   */\n      dup2\n        /* \"#utility.yul\":8702:8718   */\n      swap1\n      pop\n        /* \"#utility.yul\":8648:8724   */\n      swap2\n      swap1\n      pop\n      jump\t// out\n        /* \"#utility.yul\":8730:8850   */\n    tag_121:\n        /* \"#utility.yul\":8802:8825   */\n      tag_212\n        /* \"#utility.yul\":8819:8824   */\n      dup2\n        /* \"#utility.yul\":8802:8825   */\n      tag_120\n      jump\t// in\n    tag_212:\n        /* \"#utility.yul\":8795:8800   */\n      dup2\n        /* \"#utility.yul\":8792:8826   */\n      eq\n        /* \"#utility.yul\":8782:8844   */\n      tag_213\n      jumpi\n        /* \"#utility.yul\":8840:8841   */\n      0x00\n        /* \"#utility.yul\":8837:8838   */\n      0x00\n        /* \"#utility.yul\":8830:8842   */\n      revert\n        /* \"#utility.yul\":8782:8844   */\n    tag_213:\n        /* \"#utility.yul\":8730:8850   */\n      pop\n      jump\t// out\n        /* \"#utility.yul\":8856:8997   */\n    tag_122:\n        /* \"#utility.yul\":8912:8917   */\n      0x00\n        /* \"#utility.yul\":8943:8949   */\n      dup2\n        /* \"#utility.yul\":8937:8950   */\n      mload\n        /* \"#utility.yul\":8928:8950   */\n      swap1\n      pop\n        /* \"#utility.yul\":8959:8991   */\n      tag_215\n        /* \"#utility.yul\":8985:8990   */\n      dup2\n        /* \"#utility.yul\":8959:8991   */\n      tag_121\n      jump\t// in\n    tag_215:\n        /* \"#utility.yul\":8856:8997   */\n      swap3\n      swap2\n      pop\n      pop\n      jump\t// out\n        /* \"#utility.yul\":9003:9146   */\n    tag_123:\n        /* \"#utility.yul\":9060:9065   */\n      0x00\n        /* \"#utility.yul\":9091:9097   */\n      dup2\n        /* \"#utility.yul\":9085:9098   */\n      mload\n        /* \"#utility.yul\":9076:9098   */\n      swap1\n      pop\n        /* \"#utility.yul\":9107:9140   */\n      tag_217\n        /* \"#utility.yul\":9134:9139   */\n      dup2\n        /* \"#utility.yul\":9107:9140   */\n      tag_103\n      jump\t// in\n    tag_217:\n        /* \"#utility.yul\":9003:9146   */\n      swap3\n      swap2\n      pop\n      pop\n      jump\t// out\n        /* \"#utility.yul\":9152:10123   */\n    tag_83:\n        /* \"#utility.yul\":9255:9261   */\n      0x00\n        /* \"#utility.yul\":9263:9269   */\n      0x00\n        /* \"#utility.yul\":9271:9277   */\n      0x00\n        /* \"#utility.yul\":9279:9285   */\n      0x00\n        /* \"#utility.yul\":9287:9293   */\n      0x00\n        /* \"#utility.yul\":9336:9339   */\n      0xa0\n        /* \"#utility.yul\":9324:9333   */\n      dup7\n        /* \"#utility.yul\":9315:9322   */\n      dup9\n        /* \"#utility.yul\":9311:9334   */\n      sub\n        /* \"#utility.yul\":9307:9340   */\n      slt\n        /* \"#utility.yul\":9304:9424   */\n      iszero\n      tag_219\n      jumpi\n        /* \"#utility.yul\":9343:9422   */\n      tag_220\n      tag_96\n      jump\t// in\n    tag_220:\n        /* \"#utility.yul\":9304:9424   */\n    tag_219:\n        /* \"#utility.yul\":9463:9464   */\n      0x00\n        /* \"#utility.yul\":9488:9551   */\n      tag_221\n        /* \"#utility.yul\":9543:9550   */\n      dup9\n        /* \"#utility.yul\":9534:9540   */\n      dup3\n        /* \"#utility.yul\":9523:9532   */\n      dup10\n        /* \"#utility.yul\":9519:9541   */\n      add\n        /* \"#utility.yul\":9488:9551   */\n      tag_119\n      jump\t// in\n    tag_221:\n        /* \"#utility.yul\":9478:9551   */\n      swap6\n      pop\n        /* \"#utility.yul\":9434:9561   */\n      pop\n        /* \"#utility.yul\":9600:9602   */\n      0x20\n        /* \"#utility.yul\":9626:9689   */\n      tag_222\n        /* \"#utility.yul\":9681:9688   */\n      dup9\n        /* \"#utility.yul\":9672:9678   */\n      dup3\n        /* \"#utility.yul\":9661:9670   */\n      dup10\n        /* \"#utility.yul\":9657:9679   */\n      add\n        /* \"#utility.yul\":9626:9689   */\n      tag_122\n      jump\t// in\n    tag_222:\n        /* \"#utility.yul\":9616:9689   */\n      swap5\n      pop\n        /* \"#utility.yul\":9571:9699   */\n      pop\n        /* \"#utility.yul\":9738:9740   */\n      0x40\n        /* \"#utility.yul\":9764:9828   */\n      tag_223\n        /* \"#utility.yul\":9820:9827   */\n      dup9\n        /* \"#utility.yul\":9811:9817   */\n      dup3\n        /* \"#utility.yul\":9800:9809   */\n      dup10\n        /* \"#utility.yul\":9796:9818   */\n      add\n        /* \"#utility.yul\":9764:9828   */\n      tag_123\n      jump\t// in\n    tag_223:\n        /* \"#utility.yul\":9754:9828   */\n      swap4\n      pop\n        /* \"#utility.yul\":9709:9838   */\n      pop\n        /* \"#utility.yul\":9877:9879   */\n      0x60\n        /* \"#utility.yul\":9903:9967   */\n      tag_224\n        /* \"#utility.yul\":9959:9966   */\n      dup9\n        /* \"#utility.yul\":9950:9956   */\n      dup3\n        /* \"#utility.yul\":9939:9948   */\n      dup10\n        /* \"#utility.yul\":9935:9957   */\n      add\n        /* \"#utility.yul\":9903:9967   */\n      tag_123\n      jump\t// in\n    tag_224:\n        /* \"#utility.yul\":9893:9967   */\n      swap3\n      pop\n        /* \"#utility.yul\":9848:9977   */\n      pop\n        /* \"#utility.yul\":10016:10019   */\n      0x80\n        /* \"#utility.yul\":10043:10106   */\n      tag_225\n        /* \"#utility.yul\":10098:10105   */\n      dup9\n        /* \"#utility.yul\":10089:10095   */\n      dup3\n        /* \"#utility.yul\":10078:10087   */\n      dup10\n        /* \"#utility.yul\":10074:10096   */\n      add\n        /* \"#utility.yul\":10043:10106   */\n      tag_119\n      jump\t// in\n    tag_225:\n        /* \"#utility.yul\":10033:10106   */\n      swap2\n      pop\n        /* \"#utility.yul\":9987:10116   */\n      pop\n        /* \"#utility.yul\":9152:10123   */\n      swap3\n      swap6\n      pop\n      swap3\n      swap6\n      swap1\n      swap4\n      pop\n      jump\t// out\n        /* \"#utility.yul\":10129:10685   */\n    tag_85:\n        /* \"#utility.yul\":10168:10175   */\n      0x00\n        /* \"#utility.yul\":10191:10210   */\n      tag_227\n        /* \"#utility.yul\":10208:10209   */\n      dup3\n        /* \"#utility.yul\":10191:10210   */\n      tag_120\n      jump\t// in\n    tag_227:\n        /* \"#utility.yul\":10186:10210   */\n      swap2\n      pop\n        /* \"#utility.yul\":10224:10243   */\n      tag_228\n        /* \"#utility.yul\":10241:10242   */\n      dup4\n        /* \"#utility.yul\":10224:10243   */\n      tag_120\n      jump\t// in\n    tag_228:\n        /* \"#utility.yul\":10219:10243   */\n      swap3\n      pop\n        /* \"#utility.yul\":10278:10279   */\n      dup3\n        /* \"#utility.yul\":10275:10276   */\n      dup3\n        /* \"#utility.yul\":10271:10280   */\n      mul\n        /* \"#utility.yul\":10300:10329   */\n      tag_229\n        /* \"#utility.yul\":10317:10328   */\n      dup2\n        /* \"#utility.yul\":10300:10329   */\n      tag_120\n      jump\t// in\n    tag_229:\n        /* \"#utility.yul\":10289:10329   */\n      swap2\n      pop\n        /* \"#utility.yul\":10387:10453   */\n      0x8000000000000000000000000000000000000000000000000000000000000000\n        /* \"#utility.yul\":10384:10385   */\n      dup5\n        /* \"#utility.yul\":10381:10454   */\n      eq\n        /* \"#utility.yul\":10377:10378   */\n      0x00\n        /* \"#utility.yul\":10374:10375   */\n      dup5\n        /* \"#utility.yul\":10370:10379   */\n      slt\n        /* \"#utility.yul\":10366:10455   */\n      and\n        /* \"#utility.yul\":10363:10478   */\n      iszero\n      tag_230\n      jumpi\n        /* \"#utility.yul\":10458:10476   */\n      tag_231\n      tag_115\n      jump\t// in\n    tag_231:\n        /* \"#utility.yul\":10363:10478   */\n    tag_230:\n        /* \"#utility.yul\":10628:10629   */\n      dup3\n        /* \"#utility.yul\":10619:10626   */\n      dup3\n        /* \"#utility.yul\":10614:10630   */\n      sdiv\n        /* \"#utility.yul\":10611:10612   */\n      dup5\n        /* \"#utility.yul\":10608:10631   */\n      eq\n        /* \"#utility.yul\":10588:10589   */\n      dup4\n        /* \"#utility.yul\":10581:10590   */\n      iszero\n        /* \"#utility.yul\":10561:10645   */\n      or\n        /* \"#utility.yul\":10538:10678   */\n      tag_232\n      jumpi\n        /* \"#utility.yul\":10658:10676   */\n      tag_233\n      tag_115\n      jump\t// in\n    tag_233:\n        /* \"#utility.yul\":10538:10678   */\n    tag_232:\n        /* \"#utility.yul\":10176:10685   */\n      pop\n        /* \"#utility.yul\":10129:10685   */\n      swap3\n      swap2\n      pop\n      pop\n      jump\t// out\n\n    auxdata: 0xa264697066735822122092b596bf8f0984b1762b9e0593d99288ad891a33a77ac204f12f5fefe051f93564736f6c634300081e0033\n}\n",
				"bytecode": {
					"linkReferences": {},
					"object": "60806040526802b5e3af16b18800005f55348015601a575f5ffd5b503360035f6101000a81548173ffffffffffffffffffffffffffffffffffffffff021916908373ffffffffffffffffffffffffffffffffffffffff160217905550610c3a806100685f395ff3fe608060405260043610610054575f3560e01c8063098de820146100585780633ccfd60b146100825780633e47d6f3146100985780638da5cb5b146100d4578063b60d4288146100fe578063dc0d3dff14610108575b5f5ffd5b348015610063575f5ffd5b5061006c610144565b6040516100799190610691565b60405180910390f35b34801561008d575f5ffd5b50610096610149565b005b3480156100a3575f5ffd5b506100be60048036038101906100b99190610708565b610384565b6040516100cb9190610691565b60405180910390f35b3480156100df575f5ffd5b506100e8610399565b6040516100f59190610742565b60405180910390f35b6101066103be565b005b348015610113575f5ffd5b5061012e60048036038101906101299190610785565b6104bf565b60405161013b9190610742565b60405180910390f35b5f5481565b60035f9054906101000a900473ffffffffffffffffffffffffffffffffffffffff1673ffffffffffffffffffffffffffffffffffffffff163373ffffffffffffffffffffffffffffffffffffffff16146101d8576040517f08c379a00000000000000000000000000000000000000000000000000000000081526004016101cf9061080a565b60405180910390fd5b5f5f90505b600180549050811015610279575f600182815481106101ff576101fe610828565b5b905f5260205f20015f9054906101000a900473ffffffffffffffffffffffffffffffffffffffff1690505f60025f8373ffffffffffffffffffffffffffffffffffffffff1673ffffffffffffffffffffffffffffffffffffffff1681526020019081526020015f20819055505080806001019150506101dd565b505f67ffffffffffffffff81111561029457610293610855565b5b6040519080825280602002602001820160405280156102c25781602001602082028036833780820191505090505b50600190805190602001906102d89291906105d7565b505f3373ffffffffffffffffffffffffffffffffffffffff16476040516102fe906108af565b5f6040518083038185875af1925050503d805f8114610338576040519150601f19603f3d011682016040523d82523d5f602084013e61033d565b606091505b5050905080610381576040517f08c379a00000000000000000000000000000000000000000000000000000000081526004016103789061090d565b60405180910390fd5b50565b6002602052805f5260405f205f915090505481565b60035f9054906101000a900473ffffffffffffffffffffffffffffffffffffffff1681565b5f546103c9346104fa565b101561040a576040517f08c379a000000000000000000000000000000000000000000000000000000000815260040161040190610975565b60405180910390fd5b600133908060018154018082558091505060019003905f5260205f20015f9091909190916101000a81548173ffffffffffffffffffffffffffffffffffffffff021916908373ffffffffffffffffffffffffffffffffffffffff1602179055503460025f3373ffffffffffffffffffffffffffffffffffffffff1673ffffffffffffffffffffffffffffffffffffffff1681526020019081526020015f205f8282546104b691906109c0565b92505081905550565b600181815481106104ce575f80fd5b905f5260205f20015f915054906101000a900473ffffffffffffffffffffffffffffffffffffffff1681565b5f5f610504610532565b90505f670de0b6b3a7640000848361051c91906109f3565b6105269190610a61565b90508092505050919050565b5f5f73694aa1769357215de4fac081bf1f309adc32530690505f8173ffffffffffffffffffffffffffffffffffffffff1663feaf968c6040518163ffffffff1660e01b815260040160a060405180830381865afa158015610595573d5f5f3e3d5ffd5b505050506040513d601f19601f820116820180604052508101906105b99190610b17565b5050509150506402540be400816105d09190610b8e565b9250505090565b828054828255905f5260205f2090810192821561064d579160200282015b8281111561064c578251825f6101000a81548173ffffffffffffffffffffffffffffffffffffffff021916908373ffffffffffffffffffffffffffffffffffffffff160217905550916020019190600101906105f5565b5b50905061065a919061065e565b5090565b5b80821115610675575f815f90555060010161065f565b5090565b5f819050919050565b61068b81610679565b82525050565b5f6020820190506106a45f830184610682565b92915050565b5f5ffd5b5f73ffffffffffffffffffffffffffffffffffffffff82169050919050565b5f6106d7826106ae565b9050919050565b6106e7816106cd565b81146106f1575f5ffd5b50565b5f81359050610702816106de565b92915050565b5f6020828403121561071d5761071c6106aa565b5b5f61072a848285016106f4565b91505092915050565b61073c816106cd565b82525050565b5f6020820190506107555f830184610733565b92915050565b61076481610679565b811461076e575f5ffd5b50565b5f8135905061077f8161075b565b92915050565b5f6020828403121561079a576107996106aa565b5b5f6107a784828501610771565b91505092915050565b5f82825260208201905092915050565b7f53656e646572206973206e6f74206f776e6572210000000000000000000000005f82015250565b5f6107f46014836107b0565b91506107ff826107c0565b602082019050919050565b5f6020820190508181035f830152610821816107e8565b9050919050565b7f4e487b71000000000000000000000000000000000000000000000000000000005f52603260045260245ffd5b7f4e487b71000000000000000000000000000000000000000000000000000000005f52604160045260245ffd5b5f81905092915050565b50565b5f61089a5f83610882565b91506108a58261088c565b5f82019050919050565b5f6108b98261088f565b9150819050919050565b7f43616c6c204661696c65640000000000000000000000000000000000000000005f82015250565b5f6108f7600b836107b0565b9150610902826108c3565b602082019050919050565b5f6020820190508181035f830152610924816108eb565b9050919050565b7f4469646e27742073656e6420656e6f75676800000000000000000000000000005f82015250565b5f61095f6012836107b0565b915061096a8261092b565b602082019050919050565b5f6020820190508181035f83015261098c81610953565b9050919050565b7f4e487b71000000000000000000000000000000000000000000000000000000005f52601160045260245ffd5b5f6109ca82610679565b91506109d583610679565b92508282019050808211156109ed576109ec610993565b5b92915050565b5f6109fd82610679565b9150610a0883610679565b9250828202610a1681610679565b91508282048414831517610a2d57610a2c610993565b5b5092915050565b7f4e487b71000000000000000000000000000000000000000000000000000000005f52601260045260245ffd5b5f610a6b82610679565b9150610a7683610679565b925082610a8657610a85610a34565b5b828204905092915050565b5f69ffffffffffffffffffff82169050919050565b610aaf81610a91565b8114610ab9575f5ffd5b50565b5f81519050610aca81610aa6565b92915050565b5f819050919050565b610ae281610ad0565b8114610aec575f5ffd5b50565b5f81519050610afd81610ad9565b92915050565b5f81519050610b118161075b565b92915050565b5f5f5f5f5f60a08688031215610b3057610b2f6106aa565b5b5f610b3d88828901610abc565b9550506020610b4e88828901610aef565b9450506040610b5f88828901610b03565b9350506060610b7088828901610b03565b9250506080610b8188828901610abc565b9150509295509295909350565b5f610b9882610ad0565b9150610ba383610ad0565b9250828202610bb181610ad0565b91507f800000000000000000000000000000000000000000000000000000000000000084145f84121615610be857610be7610993565b5b8282058414831517610bfd57610bfc610993565b5b509291505056fea264697066735822122092b596bf8f0984b1762b9e0593d99288ad891a33a77ac204f12f5fefe051f93564736f6c634300081e0033",
					"opcodes": "PUSH1 0x80 PUSH1 0x40 MSTORE PUSH9 0x2B5E3AF16B1880000 PUSH0 SSTORE CALLVALUE DUP1 ISZERO PUSH1 0x1A JUMPI PUSH0 PUSH0 REVERT JUMPDEST POP CALLER PUSH1 0x3 PUSH0 PUSH2 0x100 EXP DUP2 SLOAD DUP2 PUSH20 0xFFFFFFFFFFFFFFFFFFFFFFFFFFFFFFFFFFFFFFFF MUL NOT AND SWAP1 DUP4 PUSH20 0xFFFFFFFFFFFFFFFFFFFFFFFFFFFFFFFFFFFFFFFF AND MUL OR SWAP1 SSTORE POP PUSH2 0xC3A DUP1 PUSH2 0x68 PUSH0 CODECOPY PUSH0 RETURN INVALID PUSH1 0x80 PUSH1 0x40 MSTORE PUSH1 0x4 CALLDATASIZE LT PUSH2 0x54 JUMPI PUSH0 CALLDATALOAD PUSH1 0xE0 SHR DUP1 PUSH4 0x98DE820 EQ PUSH2 0x58 JUMPI DUP1 PUSH4 0x3CCFD60B EQ PUSH2 0x82 JUMPI DUP1 PUSH4 0x3E47D6F3 EQ PUSH2 0x98 JUMPI DUP1 PUSH4 0x8DA5CB5B EQ PUSH2 0xD4 JUMPI DUP1 PUSH4 0xB60D4288 EQ PUSH2 0xFE JUMPI DUP1 PUSH4 0xDC0D3DFF EQ PUSH2 0x108 JUMPI JUMPDEST PUSH0 PUSH0 REVERT JUMPDEST CALLVALUE DUP1 ISZERO PUSH2 0x63 JUMPI PUSH0 PUSH0 REVERT JUMPDEST POP PUSH2 0x6C PUSH2 0x144 JUMP JUMPDEST PUSH1 0x40 MLOAD PUSH2 0x79 SWAP2 SWAP1 PUSH2 0x691 JUMP JUMPDEST PUSH1 0x40 MLOAD DUP1 SWAP2 SUB SWAP1 RETURN JUMPDEST CALLVALUE DUP1 ISZERO PUSH2 0x8D JUMPI PUSH0 PUSH0 REVERT JUMPDEST POP PUSH2 0x96 PUSH2 0x149 JUMP JUMPDEST STOP JUMPDEST CALLVALUE DUP1 ISZERO PUSH2 0xA3 JUMPI PUSH0 PUSH0 REVERT JUMPDEST POP PUSH2 0xBE PUSH1 0x4 DUP1 CALLDATASIZE SUB DUP2 ADD SWAP1 PUSH2 0xB9 SWAP2 SWAP1 PUSH2 0x708 JUMP JUMPDEST PUSH2 0x384 JUMP JUMPDEST PUSH1 0x40 MLOAD PUSH2 0xCB SWAP2 SWAP1 PUSH2 0x691 JUMP JUMPDEST PUSH1 0x40 MLOAD DUP1 SWAP2 SUB SWAP1 RETURN JUMPDEST CALLVALUE DUP1 ISZERO PUSH2 0xDF JUMPI PUSH0 PUSH0 REVERT JUMPDEST POP PUSH2 0xE8 PUSH2 0x399 JUMP JUMPDEST PUSH1 0x40 MLOAD PUSH2 0xF5 SWAP2 SWAP1 PUSH2 0x742 JUMP JUMPDEST PUSH1 0x40 MLOAD DUP1 SWAP2 SUB SWAP1 RETURN JUMPDEST PUSH2 0x106 PUSH2 0x3BE JUMP JUMPDEST STOP JUMPDEST CALLVALUE DUP1 ISZERO PUSH2 0x113 JUMPI PUSH0 PUSH0 REVERT JUMPDEST POP PUSH2 0x12E PUSH1 0x4 DUP1 CALLDATASIZE SUB DUP2 ADD SWAP1 PUSH2 0x129 SWAP2 SWAP1 PUSH2 0x785 JUMP JUMPDEST PUSH2 0x4BF JUMP JUMPDEST PUSH1 0x40 MLOAD PUSH2 0x13B SWAP2 SWAP1 PUSH2 0x742 JUMP JUMPDEST PUSH1 0x40 MLOAD DUP1 SWAP2 SUB SWAP1 RETURN JUMPDEST PUSH0 SLOAD DUP2 JUMP JUMPDEST PUSH1 0x3 PUSH0 SWAP1 SLOAD SWAP1 PUSH2 0x100 EXP SWAP1 DIV PUSH20 0xFFFFFFFFFFFFFFFFFFFFFFFFFFFFFFFFFFFFFFFF AND PUSH20 0xFFFFFFFFFFFFFFFFFFFFFFFFFFFFFFFFFFFFFFFF AND CALLER PUSH20 0xFFFFFFFFFFFFFFFFFFFFFFFFFFFFFFFFFFFFFFFF AND EQ PUSH2 0x1D8 JUMPI PUSH1 0x40 MLOAD PUSH32 0x8C379A000000000000000000000000000000000000000000000000000000000 DUP2 MSTORE PUSH1 0x4 ADD PUSH2 0x1CF SWAP1 PUSH2 0x80A JUMP JUMPDEST PUSH1 0x40 MLOAD DUP1 SWAP2 SUB SWAP1 REVERT JUMPDEST PUSH0 PUSH0 SWAP1 POP JUMPDEST PUSH1 0x1 DUP1 SLOAD SWAP1 POP DUP2 LT ISZERO PUSH2 0x279 JUMPI PUSH0 PUSH1 0x1 DUP3 DUP2 SLOAD DUP2 LT PUSH2 0x1FF JUMPI PUSH2 0x1FE PUSH2 0x828 JUMP JUMPDEST JUMPDEST SWAP1 PUSH0 MSTORE PUSH1 0x20 PUSH0 KECCAK256 ADD PUSH0 SWAP1 SLOAD SWAP1 PUSH2 0x100 EXP SWAP1 DIV PUSH20 0xFFFFFFFFFFFFFFFFFFFFFFFFFFFFFFFFFFFFFFFF AND SWAP1 POP PUSH0 PUSH1 0x2 PUSH0 DUP4 PUSH20 0xFFFFFFFFFFFFFFFFFFFFFFFFFFFFFFFFFFFFFFFF AND PUSH20 0xFFFFFFFFFFFFFFFFFFFFFFFFFFFFFFFFFFFFFFFF AND DUP2 MSTORE PUSH1 0x20 ADD SWAP1 DUP2 MSTORE PUSH1 0x20 ADD PUSH0 KECCAK256 DUP2 SWAP1 SSTORE POP POP DUP1 DUP1 PUSH1 0x1 ADD SWAP2 POP POP PUSH2 0x1DD JUMP JUMPDEST POP PUSH0 PUSH8 0xFFFFFFFFFFFFFFFF DUP2 GT ISZERO PUSH2 0x294 JUMPI PUSH2 0x293 PUSH2 0x855 JUMP JUMPDEST JUMPDEST PUSH1 0x40 MLOAD SWAP1 DUP1 DUP3 MSTORE DUP1 PUSH1 0x20 MUL PUSH1 0x20 ADD DUP3 ADD PUSH1 0x40 MSTORE DUP1 ISZERO PUSH2 0x2C2 JUMPI DUP2 PUSH1 0x20 ADD PUSH1 0x20 DUP3 MUL DUP1 CALLDATASIZE DUP4 CALLDATACOPY DUP1 DUP3 ADD SWAP2 POP POP SWAP1 POP JUMPDEST POP PUSH1 0x1 SWAP1 DUP1 MLOAD SWAP1 PUSH1 0x20 ADD SWAP1 PUSH2 0x2D8 SWAP3 SWAP2 SWAP1 PUSH2 0x5D7 JUMP JUMPDEST POP PUSH0 CALLER PUSH20 0xFFFFFFFFFFFFFFFFFFFFFFFFFFFFFFFFFFFFFFFF AND SELFBALANCE PUSH1 0x40 MLOAD PUSH2 0x2FE SWAP1 PUSH2 0x8AF JUMP JUMPDEST PUSH0 PUSH1 0x40 MLOAD DUP1 DUP4 SUB DUP2 DUP6 DUP8 GAS CALL SWAP3 POP POP POP RETURNDATASIZE DUP1 PUSH0 DUP2 EQ PUSH2 0x338 JUMPI PUSH1 0x40 MLOAD SWAP2 POP PUSH1 0x1F NOT PUSH1 0x3F RETURNDATASIZE ADD AND DUP3 ADD PUSH1 0x40 MSTORE RETURNDATASIZE DUP3 MSTORE RETURNDATASIZE PUSH0 PUSH1 0x20 DUP5 ADD RETURNDATACOPY PUSH2 0x33D JUMP JUMPDEST PUSH1 0x60 SWAP2 POP JUMPDEST POP POP SWAP1 POP DUP1 PUSH2 0x381 JUMPI PUSH1 0x40 MLOAD PUSH32 0x8C379A000000000000000000000000000000000000000000000000000000000 DUP2 MSTORE PUSH1 0x4 ADD PUSH2 0x378 SWAP1 PUSH2 0x90D JUMP JUMPDEST PUSH1 0x40 MLOAD DUP1 SWAP2 SUB SWAP1 REVERT JUMPDEST POP JUMP JUMPDEST PUSH1 0x2 PUSH1 0x20 MSTORE DUP1 PUSH0 MSTORE PUSH1 0x40 PUSH0 KECCAK256 PUSH0 SWAP2 POP SWAP1 POP SLOAD DUP2 JUMP JUMPDEST PUSH1 0x3 PUSH0 SWAP1 SLOAD SWAP1 PUSH2 0x100 EXP SWAP1 DIV PUSH20 0xFFFFFFFFFFFFFFFFFFFFFFFFFFFFFFFFFFFFFFFF AND DUP2 JUMP JUMPDEST PUSH0 SLOAD PUSH2 0x3C9 CALLVALUE PUSH2 0x4FA JUMP JUMPDEST LT ISZERO PUSH2 0x40A JUMPI PUSH1 0x40 MLOAD PUSH32 0x8C379A000000000000000000000000000000000000000000000000000000000 DUP2 MSTORE PUSH1 0x4 ADD PUSH2 0x401 SWAP1 PUSH2 0x975 JUMP JUMPDEST PUSH1 0x40 MLOAD DUP1 SWAP2 SUB SWAP1 REVERT JUMPDEST PUSH1 0x1 CALLER SWAP1 DUP1 PUSH1 0x1 DUP2 SLOAD ADD DUP1 DUP3 SSTORE DUP1 SWAP2 POP POP PUSH1 0x1 SWAP1 SUB SWAP1 PUSH0 MSTORE PUSH1 0x20 PUSH0 KECCAK256 ADD PUSH0 SWAP1 SWAP2 SWAP1 SWAP2 SWAP1 SWAP2 PUSH2 0x100 EXP DUP2 SLOAD DUP2 PUSH20 0xFFFFFFFFFFFFFFFFFFFFFFFFFFFFFFFFFFFFFFFF MUL NOT AND SWAP1 DUP4 PUSH20 0xFFFFFFFFFFFFFFFFFFFFFFFFFFFFFFFFFFFFFFFF AND MUL OR SWAP1 SSTORE POP CALLVALUE PUSH1 0x2 PUSH0 CALLER PUSH20 0xFFFFFFFFFFFFFFFFFFFFFFFFFFFFFFFFFFFFFFFF AND PUSH20 0xFFFFFFFFFFFFFFFFFFFFFFFFFFFFFFFFFFFFFFFF AND DUP2 MSTORE PUSH1 0x20 ADD SWAP1 DUP2 MSTORE PUSH1 0x20 ADD PUSH0 KECCAK256 PUSH0 DUP3 DUP3 SLOAD PUSH2 0x4B6 SWAP2 SWAP1 PUSH2 0x9C0 JUMP JUMPDEST SWAP3 POP POP DUP2 SWAP1 SSTORE POP JUMP JUMPDEST PUSH1 0x1 DUP2 DUP2 SLOAD DUP2 LT PUSH2 0x4CE JUMPI PUSH0 DUP1 REVERT JUMPDEST SWAP1 PUSH0 MSTORE PUSH1 0x20 PUSH0 KECCAK256 ADD PUSH0 SWAP2 POP SLOAD SWAP1 PUSH2 0x100 EXP SWAP1 DIV PUSH20 0xFFFFFFFFFFFFFFFFFFFFFFFFFFFFFFFFFFFFFFFF AND DUP2 JUMP JUMPDEST PUSH0 PUSH0 PUSH2 0x504 PUSH2 0x532 JUMP JUMPDEST SWAP1 POP PUSH0 PUSH8 0xDE0B6B3A7640000 DUP5 DUP4 PUSH2 0x51C SWAP2 SWAP1 PUSH2 0x9F3 JUMP JUMPDEST PUSH2 0x526 SWAP2 SWAP1 PUSH2 0xA61 JUMP JUMPDEST SWAP1 POP DUP1 SWAP3 POP POP POP SWAP2 SWAP1 POP JUMP JUMPDEST PUSH0 PUSH0 PUSH20 0x694AA1769357215DE4FAC081BF1F309ADC325306 SWAP1 POP PUSH0 DUP2 PUSH20 0xFFFFFFFFFFFFFFFFFFFFFFFFFFFFFFFFFFFFFFFF AND PUSH4 0xFEAF968C PUSH1 0x40 MLOAD DUP2 PUSH4 0xFFFFFFFF AND PUSH1 0xE0 SHL DUP2 MSTORE PUSH1 0x4 ADD PUSH1 0xA0 PUSH1 0x40 MLOAD DUP1 DUP4 SUB DUP2 DUP7 GAS STATICCALL ISZERO DUP1 ISZERO PUSH2 0x595 JUMPI RETURNDATASIZE PUSH0 PUSH0 RETURNDATACOPY RETURNDATASIZE PUSH0 REVERT JUMPDEST POP POP POP POP PUSH1 0x40 MLOAD RETURNDATASIZE PUSH1 0x1F NOT PUSH1 0x1F DUP3 ADD AND DUP3 ADD DUP1 PUSH1 0x40 MSTORE POP DUP2 ADD SWAP1 PUSH2 0x5B9 SWAP2 SWAP1 PUSH2 0xB17 JUMP JUMPDEST POP POP POP SWAP2 POP POP PUSH5 0x2540BE400 DUP2 PUSH2 0x5D0 SWAP2 SWAP1 PUSH2 0xB8E JUMP JUMPDEST SWAP3 POP POP POP SWAP1 JUMP JUMPDEST DUP3 DUP1 SLOAD DUP3 DUP3 SSTORE SWAP1 PUSH0 MSTORE PUSH1 0x20 PUSH0 KECCAK256 SWAP1 DUP2 ADD SWAP3 DUP3 ISZERO PUSH2 0x64D JUMPI SWAP2 PUSH1 0x20 MUL DUP3 ADD JUMPDEST DUP3 DUP2 GT ISZERO PUSH2 0x64C JUMPI DUP3 MLOAD DUP3 PUSH0 PUSH2 0x100 EXP DUP2 SLOAD DUP2 PUSH20 0xFFFFFFFFFFFFFFFFFFFFFFFFFFFFFFFFFFFFFFFF MUL NOT AND SWAP1 DUP4 PUSH20 0xFFFFFFFFFFFFFFFFFFFFFFFFFFFFFFFFFFFFFFFF AND MUL OR SWAP1 SSTORE POP SWAP2 PUSH1 0x20 ADD SWAP2 SWAP1 PUSH1 0x1 ADD SWAP1 PUSH2 0x5F5 JUMP JUMPDEST JUMPDEST POP SWAP1 POP PUSH2 0x65A SWAP2 SWAP1 PUSH2 0x65E JUMP JUMPDEST POP SWAP1 JUMP JUMPDEST JUMPDEST DUP1 DUP3 GT ISZERO PUSH2 0x675 JUMPI PUSH0 DUP2 PUSH0 SWAP1 SSTORE POP PUSH1 0x1 ADD PUSH2 0x65F JUMP JUMPDEST POP SWAP1 JUMP JUMPDEST PUSH0 DUP2 SWAP1 POP SWAP2 SWAP1 POP JUMP JUMPDEST PUSH2 0x68B DUP2 PUSH2 0x679 JUMP JUMPDEST DUP3 MSTORE POP POP JUMP JUMPDEST PUSH0 PUSH1 0x20 DUP3 ADD SWAP1 POP PUSH2 0x6A4 PUSH0 DUP4 ADD DUP5 PUSH2 0x682 JUMP JUMPDEST SWAP3 SWAP2 POP POP JUMP JUMPDEST PUSH0 PUSH0 REVERT JUMPDEST PUSH0 PUSH20 0xFFFFFFFFFFFFFFFFFFFFFFFFFFFFFFFFFFFFFFFF DUP3 AND SWAP1 POP SWAP2 SWAP1 POP JUMP JUMPDEST PUSH0 PUSH2 0x6D7 DUP3 PUSH2 0x6AE JUMP JUMPDEST SWAP1 POP SWAP2 SWAP1 POP JUMP JUMPDEST PUSH2 0x6E7 DUP2 PUSH2 0x6CD JUMP JUMPDEST DUP2 EQ PUSH2 0x6F1 JUMPI PUSH0 PUSH0 REVERT JUMPDEST POP JUMP JUMPDEST PUSH0 DUP2 CALLDATALOAD SWAP1 POP PUSH2 0x702 DUP2 PUSH2 0x6DE JUMP JUMPDEST SWAP3 SWAP2 POP POP JUMP JUMPDEST PUSH0 PUSH1 0x20 DUP3 DUP5 SUB SLT ISZERO PUSH2 0x71D JUMPI PUSH2 0x71C PUSH2 0x6AA JUMP JUMPDEST JUMPDEST PUSH0 PUSH2 0x72A DUP5 DUP3 DUP6 ADD PUSH2 0x6F4 JUMP JUMPDEST SWAP2 POP POP SWAP3 SWAP2 POP POP JUMP JUMPDEST PUSH2 0x73C DUP2 PUSH2 0x6CD JUMP JUMPDEST DUP3 MSTORE POP POP JUMP JUMPDEST PUSH0 PUSH1 0x20 DUP3 ADD SWAP1 POP PUSH2 0x755 PUSH0 DUP4 ADD DUP5 PUSH2 0x733 JUMP JUMPDEST SWAP3 SWAP2 POP POP JUMP JUMPDEST PUSH2 0x764 DUP2 PUSH2 0x679 JUMP JUMPDEST DUP2 EQ PUSH2 0x76E JUMPI PUSH0 PUSH0 REVERT JUMPDEST POP JUMP JUMPDEST PUSH0 DUP2 CALLDATALOAD SWAP1 POP PUSH2 0x77F DUP2 PUSH2 0x75B JUMP JUMPDEST SWAP3 SWAP2 POP POP JUMP JUMPDEST PUSH0 PUSH1 0x20 DUP3 DUP5 SUB SLT ISZERO PUSH2 0x79A JUMPI PUSH2 0x799 PUSH2 0x6AA JUMP JUMPDEST JUMPDEST PUSH0 PUSH2 0x7A7 DUP5 DUP3 DUP6 ADD PUSH2 0x771 JUMP JUMPDEST SWAP2 POP POP SWAP3 SWAP2 POP POP JUMP JUMPDEST PUSH0 DUP3 DUP3 MSTORE PUSH1 0x20 DUP3 ADD SWAP1 POP SWAP3 SWAP2 POP POP JUMP JUMPDEST PUSH32 0x53656E646572206973206E6F74206F776E657221000000000000000000000000 PUSH0 DUP3 ADD MSTORE POP JUMP JUMPDEST PUSH0 PUSH2 0x7F4 PUSH1 0x14 DUP4 PUSH2 0x7B0 JUMP JUMPDEST SWAP2 POP PUSH2 0x7FF DUP3 PUSH2 0x7C0 JUMP JUMPDEST PUSH1 0x20 DUP3 ADD SWAP1 POP SWAP2 SWAP1 POP JUMP JUMPDEST PUSH0 PUSH1 0x20 DUP3 ADD SWAP1 POP DUP2 DUP2 SUB PUSH0 DUP4 ADD MSTORE PUSH2 0x821 DUP2 PUSH2 0x7E8 JUMP JUMPDEST SWAP1 POP SWAP2 SWAP1 POP JUMP JUMPDEST PUSH32 0x4E487B7100000000000000000000000000000000000000000000000000000000 PUSH0 MSTORE PUSH1 0x32 PUSH1 0x4 MSTORE PUSH1 0x24 PUSH0 REVERT JUMPDEST PUSH32 0x4E487B7100000000000000000000000000000000000000000000000000000000 PUSH0 MSTORE PUSH1 0x41 PUSH1 0x4 MSTORE PUSH1 0x24 PUSH0 REVERT JUMPDEST PUSH0 DUP2 SWAP1 POP SWAP3 SWAP2 POP POP JUMP JUMPDEST POP JUMP JUMPDEST PUSH0 PUSH2 0x89A PUSH0 DUP4 PUSH2 0x882 JUMP JUMPDEST SWAP2 POP PUSH2 0x8A5 DUP3 PUSH2 0x88C JUMP JUMPDEST PUSH0 DUP3 ADD SWAP1 POP SWAP2 SWAP1 POP JUMP JUMPDEST PUSH0 PUSH2 0x8B9 DUP3 PUSH2 0x88F JUMP JUMPDEST SWAP2 POP DUP2 SWAP1 POP SWAP2 SWAP1 POP JUMP JUMPDEST PUSH32 0x43616C6C204661696C6564000000000000000000000000000000000000000000 PUSH0 DUP3 ADD MSTORE POP JUMP JUMPDEST PUSH0 PUSH2 0x8F7 PUSH1 0xB DUP4 PUSH2 0x7B0 JUMP JUMPDEST SWAP2 POP PUSH2 0x902 DUP3 PUSH2 0x8C3 JUMP JUMPDEST PUSH1 0x20 DUP3 ADD SWAP1 POP SWAP2 SWAP1 POP JUMP JUMPDEST PUSH0 PUSH1 0x20 DUP3 ADD SWAP1 POP DUP2 DUP2 SUB PUSH0 DUP4 ADD MSTORE PUSH2 0x924 DUP2 PUSH2 0x8EB JUMP JUMPDEST SWAP1 POP SWAP2 SWAP1 POP JUMP JUMPDEST PUSH32 0x4469646E27742073656E6420656E6F7567680000000000000000000000000000 PUSH0 DUP3 ADD MSTORE POP JUMP JUMPDEST PUSH0 PUSH2 0x95F PUSH1 0x12 DUP4 PUSH2 0x7B0 JUMP JUMPDEST SWAP2 POP PUSH2 0x96A DUP3 PUSH2 0x92B JUMP JUMPDEST PUSH1 0x20 DUP3 ADD SWAP1 POP SWAP2 SWAP1 POP JUMP JUMPDEST PUSH0 PUSH1 0x20 DUP3 ADD SWAP1 POP DUP2 DUP2 SUB PUSH0 DUP4 ADD MSTORE PUSH2 0x98C DUP2 PUSH2 0x953 JUMP JUMPDEST SWAP1 POP SWAP2 SWAP1 POP JUMP JUMPDEST PUSH32 0x4E487B7100000000000000000000000000000000000000000000000000000000 PUSH0 MSTORE PUSH1 0x11 PUSH1 0x4 MSTORE PUSH1 0x24 PUSH0 REVERT JUMPDEST PUSH0 PUSH2 0x9CA DUP3 PUSH2 0x679 JUMP JUMPDEST SWAP2 POP PUSH2 0x9D5 DUP4 PUSH2 0x679 JUMP JUMPDEST SWAP3 POP DUP3 DUP3 ADD SWAP1 POP DUP1 DUP3 GT ISZERO PUSH2 0x9ED JUMPI PUSH2 0x9EC PUSH2 0x993 JUMP JUMPDEST JUMPDEST SWAP3 SWAP2 POP POP JUMP JUMPDEST PUSH0 PUSH2 0x9FD DUP3 PUSH2 0x679 JUMP JUMPDEST SWAP2 POP PUSH2 0xA08 DUP4 PUSH2 0x679 JUMP JUMPDEST SWAP3 POP DUP3 DUP3 MUL PUSH2 0xA16 DUP2 PUSH2 0x679 JUMP JUMPDEST SWAP2 POP DUP3 DUP3 DIV DUP5 EQ DUP4 ISZERO OR PUSH2 0xA2D JUMPI PUSH2 0xA2C PUSH2 0x993 JUMP JUMPDEST JUMPDEST POP SWAP3 SWAP2 POP POP JUMP JUMPDEST PUSH32 0x4E487B7100000000000000000000000000000000000000000000000000000000 PUSH0 MSTORE PUSH1 0x12 PUSH1 0x4 MSTORE PUSH1 0x24 PUSH0 REVERT JUMPDEST PUSH0 PUSH2 0xA6B DUP3 PUSH2 0x679 JUMP JUMPDEST SWAP2 POP PUSH2 0xA76 DUP4 PUSH2 0x679 JUMP JUMPDEST SWAP3 POP DUP3 PUSH2 0xA86 JUMPI PUSH2 0xA85 PUSH2 0xA34 JUMP JUMPDEST JUMPDEST DUP3 DUP3 DIV SWAP1 POP SWAP3 SWAP2 POP POP JUMP JUMPDEST PUSH0 PUSH10 0xFFFFFFFFFFFFFFFFFFFF DUP3 AND SWAP1 POP SWAP2 SWAP1 POP JUMP JUMPDEST PUSH2 0xAAF DUP2 PUSH2 0xA91 JUMP JUMPDEST DUP2 EQ PUSH2 0xAB9 JUMPI PUSH0 PUSH0 REVERT JUMPDEST POP JUMP JUMPDEST PUSH0 DUP2 MLOAD SWAP1 POP PUSH2 0xACA DUP2 PUSH2 0xAA6 JUMP JUMPDEST SWAP3 SWAP2 POP POP JUMP JUMPDEST PUSH0 DUP2 SWAP1 POP SWAP2 SWAP1 POP JUMP JUMPDEST PUSH2 0xAE2 DUP2 PUSH2 0xAD0 JUMP JUMPDEST DUP2 EQ PUSH2 0xAEC JUMPI PUSH0 PUSH0 REVERT JUMPDEST POP JUMP JUMPDEST PUSH0 DUP2 MLOAD SWAP1 POP PUSH2 0xAFD DUP2 PUSH2 0xAD9 JUMP JUMPDEST SWAP3 SWAP2 POP POP JUMP JUMPDEST PUSH0 DUP2 MLOAD SWAP1 POP PUSH2 0xB11 DUP2 PUSH2 0x75B JUMP JUMPDEST SWAP3 SWAP2 POP POP JUMP JUMPDEST PUSH0 PUSH0 PUSH0 PUSH0 PUSH0 PUSH1 0xA0 DUP7 DUP9 SUB SLT ISZERO PUSH2 0xB30 JUMPI PUSH2 0xB2F PUSH2 0x6AA JUMP JUMPDEST JUMPDEST PUSH0 PUSH2 0xB3D DUP9 DUP3 DUP10 ADD PUSH2 0xABC JUMP JUMPDEST SWAP6 POP POP PUSH1 0x20 PUSH2 0xB4E DUP9 DUP3 DUP10 ADD PUSH2 0xAEF JUMP JUMPDEST SWAP5 POP POP PUSH1 0x40 PUSH2 0xB5F DUP9 DUP3 DUP10 ADD PUSH2 0xB03 JUMP JUMPDEST SWAP4 POP POP PUSH1 0x60 PUSH2 0xB70 DUP9 DUP3 DUP10 ADD PUSH2 0xB03 JUMP JUMPDEST SWAP3 POP POP PUSH1 0x80 PUSH2 0xB81 DUP9 DUP3 DUP10 ADD PUSH2 0xABC JUMP JUMPDEST SWAP2 POP POP SWAP3 SWAP6 POP SWAP3 SWAP6 SWAP1 SWAP4 POP JUMP JUMPDEST PUSH0 PUSH2 0xB98 DUP3 PUSH2 0xAD0 JUMP JUMPDEST SWAP2 POP PUSH2 0xBA3 DUP4 PUSH2 0xAD0 JUMP JUMPDEST SWAP3 POP DUP3 DUP3 MUL PUSH2 0xBB1 DUP2 PUSH2 0xAD0 JUMP JUMPDEST SWAP2 POP PUSH32 0x8000000000000000000000000000000000000000000000000000000000000000 DUP5 EQ PUSH0 DUP5 SLT AND ISZERO PUSH2 0xBE8 JUMPI PUSH2 0xBE7 PUSH2 0x993 JUMP JUMPDEST JUMPDEST DUP3 DUP3 SDIV DUP5 EQ DUP4 ISZERO OR PUSH2 0xBFD JUMPI PUSH2 0xBFC PUSH2 0x993 JUMP JUMPDEST JUMPDEST POP SWAP3 SWAP2 POP POP JUMP INVALID LOG2 PUSH5 0x6970667358 0x22 SLT KECCAK256 SWAP3 0xB5 SWAP7 0xBF DUP16 MULMOD DUP5 0xB1 PUSH23 0x2B9E0593D99288AD891A33A77AC204F12F5FEFE051F935 PUSH5 0x736F6C6343 STOP ADDMOD 0x1E STOP CALLER "
				},
				"gasEstimates": {
					"creation": {
						"codeDepositCost": "626000",
						"executionCost": "47025",
						"totalCost": "673025"
					},
					"external": {
						"addressToAmountFunded(address)": "2824",
						"fund()": "infinite",
						"funders(uint256)": "5032",
						"minimumUsd()": "2402",
						"owner()": "2552",
						"withdraw()": "infinite"
					}
				},
				"methodIdentifiers": {
					"addressToAmountFunded(address)": "3e47d6f3",
					"fund()": "b60d4288",
					"funders(uint256)": "dc0d3dff",
					"minimumUsd()": "098de820",
					"owner()": "8da5cb5b",
					"withdraw()": "3ccfd60b"
				}
			},
			"storageLayout": {
				"storage": [
					{
						"astId": 56,
						"contract": "contracts/FundMe.sol:FundMe",
						"label": "minimumUsd",
						"offset": 0,
						"slot": "0",
						"type": "t_uint256"
					},
					{
						"astId": 59,
						"contract": "contracts/FundMe.sol:FundMe",
						"label": "funders",
						"offset": 0,
						"slot": "1",
						"type": "t_array(t_address)dyn_storage"
					},
					{
						"astId": 63,
						"contract": "contracts/FundMe.sol:FundMe",
						"label": "addressToAmountFunded",
						"offset": 0,
						"slot": "2",
						"type": "t_mapping(t_address,t_uint256)"
					},
					{
						"astId": 65,
						"contract": "contracts/FundMe.sol:FundMe",
						"label": "owner",
						"offset": 0,
						"slot": "3",
						"type": "t_address"
					}
				],
				"types": {
					"t_address": {
						"encoding": "inplace",
						"label": "address",
						"numberOfBytes": "20"
					},
					"t_array(t_address)dyn_storage": {
						"base": "t_address",
						"encoding": "dynamic_array",
						"label": "address[]",
						"numberOfBytes": "32"
					},
					"t_mapping(t_address,t_uint256)": {
						"encoding": "mapping",
						"key": "t_address",
						"label": "mapping(address => uint256)",
						"numberOfBytes": "32",
						"value": "t_uint256"
					},
					"t_uint256": {
						"encoding": "inplace",
						"label": "uint256",
						"numberOfBytes": "32"
					}
				}
			},
			"userdoc": {
				"kind": "user",
				"methods": {},
				"version": 1
			}
		}
	}
}