{
	"contracts/FundMe.sol": {
		"FundMe": {
			"abi": [
				{
					"inputs": [],
					"name": "fund",
					"outputs": [],
					"stateMutability": "payable",
					"type": "function"
				},
				{
					"inputs": [
						{
							"internalType": "address",
							"name": "",
							"type": "address"
						}
					],
					"name": "funderToAmount",
					"outputs": [
						{
							"internalType": "uint256",
							"name": "",
							"type": "uint256"
						}
					],
					"stateMutability": "view",
					"type": "function"
				},
				{
					"inputs": [
						{
							"internalType": "uint256",
							"name": "",
							"type": "uint256"
						}
					],
					"name": "funders",
					"outputs": [
						{
							"internalType": "address",
							"name": "",
							"type": "address"
						}
					],
					"stateMutability": "view",
					"type": "function"
				},
				{
					"inputs": [],
					"name": "minimumUsd",
					"outputs": [
						{
							"internalType": "uint256",
							"name": "",
							"type": "uint256"
						}
					],
					"stateMutability": "view",
					"type": "function"
				}
			],
			"devdoc": {
				"kind": "dev",
				"methods": {},
				"version": 1
			},
			"evm": {
				"assembly": "    /* \"contracts/FundMe.sol\":183:745  contract FundMe {... */\n  mstore(0x40, 0x80)\n    /* \"contracts/FundMe.sol\":277:284  50*1e18 */\n  0x02b5e3af16b1880000\n    /* \"contracts/FundMe.sol\":249:284  uint256 public minimumUsd = 50*1e18 */\n  0x00\n  sstore\n    /* \"contracts/FundMe.sol\":183:745  contract FundMe {... */\n  callvalue\n  dup1\n  iszero\n  tag_1\n  jumpi\n  revert(0x00, 0x00)\ntag_1:\n  pop\n  dataSize(sub_0)\n  dup1\n  dataOffset(sub_0)\n  0x00\n  codecopy\n  0x00\n  return\nstop\n\nsub_0: assembly {\n        /* \"contracts/FundMe.sol\":183:745  contract FundMe {... */\n      mstore(0x40, 0x80)\n      jumpi(tag_1, lt(calldatasize, 0x04))\n      shr(0xe0, calldataload(0x00))\n      dup1\n      0x098de820\n      eq\n      tag_2\n      jumpi\n      dup1\n      0x4407e1e8\n      eq\n      tag_3\n      jumpi\n      dup1\n      0xb60d4288\n      eq\n      tag_4\n      jumpi\n      dup1\n      0xdc0d3dff\n      eq\n      tag_5\n      jumpi\n    tag_1:\n      revert(0x00, 0x00)\n        /* \"contracts/FundMe.sol\":249:284  uint256 public minimumUsd = 50*1e18 */\n    tag_2:\n      callvalue\n      dup1\n      iszero\n      tag_6\n      jumpi\n      revert(0x00, 0x00)\n    tag_6:\n      pop\n      tag_7\n      tag_8\n      jump\t// in\n    tag_7:\n      mload(0x40)\n      tag_9\n      swap2\n      swap1\n      tag_10\n      jump\t// in\n    tag_9:\n      mload(0x40)\n      dup1\n      swap2\n      sub\n      swap1\n      return\n        /* \"contracts/FundMe.sol\":322:372  mapping (address => uint256) public funderToAmount */\n    tag_3:\n      callvalue\n      dup1\n      iszero\n      tag_11\n      jumpi\n      revert(0x00, 0x00)\n    tag_11:\n      pop\n      tag_12\n      0x04\n      dup1\n      calldatasize\n      sub\n      dup2\n      add\n      swap1\n      tag_13\n      swap2\n      swap1\n      tag_14\n      jump\t// in\n    tag_13:\n      tag_15\n      jump\t// in\n    tag_12:\n      mload(0x40)\n      tag_16\n      swap2\n      swap1\n      tag_10\n      jump\t// in\n    tag_16:\n      mload(0x40)\n      dup1\n      swap2\n      sub\n      swap1\n      return\n        /* \"contracts/FundMe.sol\":382:708  function fund() public payable {... */\n    tag_4:\n      tag_17\n      tag_18\n      jump\t// in\n    tag_17:\n      stop\n        /* \"contracts/FundMe.sol\":291:315  address[] public funders */\n    tag_5:\n      callvalue\n      dup1\n      iszero\n      tag_19\n      jumpi\n      revert(0x00, 0x00)\n    tag_19:\n      pop\n      tag_20\n      0x04\n      dup1\n      calldatasize\n      sub\n      dup2\n      add\n      swap1\n      tag_21\n      swap2\n      swap1\n      tag_22\n      jump\t// in\n    tag_21:\n      tag_23\n      jump\t// in\n    tag_20:\n      mload(0x40)\n      tag_24\n      swap2\n      swap1\n      tag_25\n      jump\t// in\n    tag_24:\n      mload(0x40)\n      dup1\n      swap2\n      sub\n      swap1\n      return\n        /* \"contracts/FundMe.sol\":249:284  uint256 public minimumUsd = 50*1e18 */\n    tag_8:\n      sload(0x00)\n      dup2\n      jump\t// out\n        /* \"contracts/FundMe.sol\":322:372  mapping (address => uint256) public funderToAmount */\n    tag_15:\n      mstore(0x20, 0x02)\n      dup1\n      0x00\n      mstore\n      keccak256(0x00, 0x40)\n      0x00\n      swap2\n      pop\n      swap1\n      pop\n      sload\n      dup2\n      jump\t// out\n        /* \"contracts/FundMe.sol\":382:708  function fund() public payable {... */\n    tag_18:\n        /* \"contracts/FundMe.sol\":582:592  minimumUsd */\n      sload(0x00)\n        /* \"contracts/FundMe.sol\":549:578  msg.value.getConversionRate() */\n      tag_27\n        /* \"contracts/FundMe.sol\":549:558  msg.value */\n      callvalue\n        /* \"contracts/FundMe.sol\":549:576  msg.value.getConversionRate */\n      tag_28\n        /* \"contracts/FundMe.sol\":549:578  msg.value.getConversionRate() */\n      jump\t// in\n    tag_27:\n        /* \"contracts/FundMe.sol\":549:592  msg.value.getConversionRate() >= minimumUsd */\n      lt\n      iszero\n        /* \"contracts/FundMe.sol\":541:615  require(msg.value.getConversionRate() >= minimumUsd, \"Didn't send enough\") */\n      tag_29\n      jumpi\n      mload(0x40)\n      0x08c379a000000000000000000000000000000000000000000000000000000000\n      dup2\n      mstore\n      0x04\n      add\n      tag_30\n      swap1\n      tag_31\n      jump\t// in\n    tag_30:\n      mload(0x40)\n      dup1\n      swap2\n      sub\n      swap1\n      revert\n    tag_29:\n        /* \"contracts/FundMe.sol\":626:633  funders */\n      0x01\n        /* \"contracts/FundMe.sol\":639:649  msg.sender */\n      caller\n        /* \"contracts/FundMe.sol\":626:650  funders.push(msg.sender) */\n      swap1\n      dup1\n      0x01\n      dup2\n      sload\n      add\n      dup1\n      dup3\n      sstore\n      dup1\n      swap2\n      pop\n      pop\n      0x01\n      swap1\n      sub\n      swap1\n      0x00\n      mstore\n      keccak256(0x00, 0x20)\n      add\n      0x00\n      swap1\n      swap2\n      swap1\n      swap2\n      swap1\n      swap2\n      0x0100\n      exp\n      dup2\n      sload\n      dup2\n      0xffffffffffffffffffffffffffffffffffffffff\n      mul\n      not\n      and\n      swap1\n      dup4\n      0xffffffffffffffffffffffffffffffffffffffff\n      and\n      mul\n      or\n      swap1\n      sstore\n      pop\n        /* \"contracts/FundMe.sol\":691:700  msg.value */\n      callvalue\n        /* \"contracts/FundMe.sol\":661:675  funderToAmount */\n      0x02\n        /* \"contracts/FundMe.sol\":661:687  funderToAmount[msg.sender] */\n      0x00\n        /* \"contracts/FundMe.sol\":676:686  msg.sender */\n      caller\n        /* \"contracts/FundMe.sol\":661:687  funderToAmount[msg.sender] */\n      0xffffffffffffffffffffffffffffffffffffffff\n      and\n      0xffffffffffffffffffffffffffffffffffffffff\n      and\n      dup2\n      mstore\n      0x20\n      add\n      swap1\n      dup2\n      mstore\n      0x20\n      add\n      0x00\n      keccak256\n      0x00\n        /* \"contracts/FundMe.sol\":661:700  funderToAmount[msg.sender] += msg.value */\n      dup3\n      dup3\n      sload\n      tag_33\n      swap2\n      swap1\n      tag_34\n      jump\t// in\n    tag_33:\n      swap3\n      pop\n      pop\n      dup2\n      swap1\n      sstore\n      pop\n        /* \"contracts/FundMe.sol\":382:708  function fund() public payable {... */\n      jump\t// out\n        /* \"contracts/FundMe.sol\":291:315  address[] public funders */\n    tag_23:\n      0x01\n      dup2\n      dup2\n      sload\n      dup2\n      lt\n      tag_35\n      jumpi\n      0x00\n      dup1\n      revert\n    tag_35:\n      swap1\n      0x00\n      mstore\n      keccak256(0x00, 0x20)\n      add\n      0x00\n      swap2\n      pop\n      sload\n      swap1\n      0x0100\n      exp\n      swap1\n      div\n      0xffffffffffffffffffffffffffffffffffffffff\n      and\n      dup2\n      jump\t// out\n        /* \"contracts/PriceConverter.sol\":754:976  function getConversionRate(uint256 ethAmount) internal view returns(uint256) {... */\n    tag_28:\n        /* \"contracts/PriceConverter.sol\":822:829  uint256 */\n      0x00\n        /* \"contracts/PriceConverter.sol\":842:858  uint256 ethPrice */\n      0x00\n        /* \"contracts/PriceConverter.sol\":861:871  getPrice() */\n      tag_38\n        /* \"contracts/PriceConverter.sol\":861:869  getPrice */\n      tag_39\n        /* \"contracts/PriceConverter.sol\":861:871  getPrice() */\n      jump\t// in\n    tag_38:\n        /* \"contracts/PriceConverter.sol\":842:871  uint256 ethPrice = getPrice() */\n      swap1\n      pop\n        /* \"contracts/PriceConverter.sol\":882:904  uint256 ethAmountInUsd */\n      0x00\n        /* \"contracts/PriceConverter.sol\":932:936  1e18 */\n      0x0de0b6b3a7640000\n        /* \"contracts/PriceConverter.sol\":919:928  ethAmount */\n      dup5\n        /* \"contracts/PriceConverter.sol\":908:916  ethPrice */\n      dup4\n        /* \"contracts/PriceConverter.sol\":908:928  ethPrice * ethAmount */\n      tag_40\n      swap2\n      swap1\n      tag_41\n      jump\t// in\n    tag_40:\n        /* \"contracts/PriceConverter.sol\":907:936  (ethPrice * ethAmount) / 1e18 */\n      tag_42\n      swap2\n      swap1\n      tag_43\n      jump\t// in\n    tag_42:\n        /* \"contracts/PriceConverter.sol\":882:936  uint256 ethAmountInUsd = (ethPrice * ethAmount) / 1e18 */\n      swap1\n      pop\n        /* \"contracts/PriceConverter.sol\":954:968  ethAmountInUsd */\n      dup1\n        /* \"contracts/PriceConverter.sol\":947:968  return ethAmountInUsd */\n      swap3\n      pop\n      pop\n      pop\n        /* \"contracts/PriceConverter.sol\":754:976  function getConversionRate(uint256 ethAmount) internal view returns(uint256) {... */\n      swap2\n      swap1\n      pop\n      jump\t// out\n        /* \"contracts/PriceConverter.sol\":183:530  function getPrice() internal view returns(uint256) {... */\n    tag_39:\n        /* \"contracts/PriceConverter.sol\":225:232  uint256 */\n      0x00\n        /* \"contracts/PriceConverter.sol\":326:357  AggregatorV3Interface priceFeed */\n      0x00\n        /* \"contracts/PriceConverter.sol\":382:424  0x694AA1769357215DE4FAC081bf1f309aDC325306 */\n      0x694aa1769357215de4fac081bf1f309adc325306\n        /* \"contracts/PriceConverter.sol\":326:425  AggregatorV3Interface priceFeed = AggregatorV3Interface(0x694AA1769357215DE4FAC081bf1f309aDC325306) */\n      swap1\n      pop\n        /* \"contracts/PriceConverter.sol\":439:451  int256 price */\n      0x00\n        /* \"contracts/PriceConverter.sol\":458:467  priceFeed */\n      dup2\n        /* \"contracts/PriceConverter.sol\":458:483  priceFeed.latestRoundData */\n      0xffffffffffffffffffffffffffffffffffffffff\n      and\n      0xfeaf968c\n        /* \"contracts/PriceConverter.sol\":458:485  priceFeed.latestRoundData() */\n      mload(0x40)\n      dup2\n      0xffffffff\n      and\n      0xe0\n      shl\n      dup2\n      mstore\n      0x04\n      add\n      0xa0\n      mload(0x40)\n      dup1\n      dup4\n      sub\n      dup2\n      dup7\n      gas\n      staticcall\n      iszero\n      dup1\n      iszero\n      tag_46\n      jumpi\n      returndatacopy(0x00, 0x00, returndatasize)\n      revert(0x00, returndatasize)\n    tag_46:\n      pop\n      pop\n      pop\n      pop\n      mload(0x40)\n      returndatasize\n      not(0x1f)\n      0x1f\n      dup3\n      add\n      and\n      dup3\n      add\n      dup1\n      0x40\n      mstore\n      pop\n      dup2\n      add\n      swap1\n      tag_47\n      swap2\n      swap1\n      tag_48\n      jump\t// in\n    tag_47:\n        /* \"contracts/PriceConverter.sol\":436:485  (, int256 price,,,) = priceFeed.latestRoundData() */\n      pop\n      pop\n      pop\n      swap2\n      pop\n      pop\n        /* \"contracts/PriceConverter.sol\":517:521  1e10 */\n      0x02540be400\n        /* \"contracts/PriceConverter.sol\":511:516  price */\n      dup2\n        /* \"contracts/PriceConverter.sol\":511:521  price*1e10 */\n      tag_49\n      swap2\n      swap1\n      tag_50\n      jump\t// in\n    tag_49:\n        /* \"contracts/PriceConverter.sol\":496:522  return uint256(price*1e10) */\n      swap3\n      pop\n      pop\n      pop\n        /* \"contracts/PriceConverter.sol\":183:530  function getPrice() internal view returns(uint256) {... */\n      swap1\n      jump\t// out\n        /* \"#utility.yul\":7:84   */\n    tag_51:\n        /* \"#utility.yul\":44:51   */\n      0x00\n        /* \"#utility.yul\":73:78   */\n      dup2\n        /* \"#utility.yul\":62:78   */\n      swap1\n      pop\n        /* \"#utility.yul\":7:84   */\n      swap2\n      swap1\n      pop\n      jump\t// out\n        /* \"#utility.yul\":90:208   */\n    tag_52:\n        /* \"#utility.yul\":177:201   */\n      tag_78\n        /* \"#utility.yul\":195:200   */\n      dup2\n        /* \"#utility.yul\":177:201   */\n      tag_51\n      jump\t// in\n    tag_78:\n        /* \"#utility.yul\":172:175   */\n      dup3\n        /* \"#utility.yul\":165:202   */\n      mstore\n        /* \"#utility.yul\":90:208   */\n      pop\n      pop\n      jump\t// out\n        /* \"#utility.yul\":214:436   */\n    tag_10:\n        /* \"#utility.yul\":307:311   */\n      0x00\n        /* \"#utility.yul\":345:347   */\n      0x20\n        /* \"#utility.yul\":334:343   */\n      dup3\n        /* \"#utility.yul\":330:348   */\n      add\n        /* \"#utility.yul\":322:348   */\n      swap1\n      pop\n        /* \"#utility.yul\":358:429   */\n      tag_80\n        /* \"#utility.yul\":426:427   */\n      0x00\n        /* \"#utility.yul\":415:424   */\n      dup4\n        /* \"#utility.yul\":411:428   */\n      add\n        /* \"#utility.yul\":402:408   */\n      dup5\n        /* \"#utility.yul\":358:429   */\n      tag_52\n      jump\t// in\n    tag_80:\n        /* \"#utility.yul\":214:436   */\n      swap3\n      swap2\n      pop\n      pop\n      jump\t// out\n        /* \"#utility.yul\":523:640   */\n    tag_54:\n        /* \"#utility.yul\":632:633   */\n      0x00\n        /* \"#utility.yul\":629:630   */\n      0x00\n        /* \"#utility.yul\":622:634   */\n      revert\n        /* \"#utility.yul\":769:895   */\n    tag_56:\n        /* \"#utility.yul\":806:813   */\n      0x00\n        /* \"#utility.yul\":846:888   */\n      0xffffffffffffffffffffffffffffffffffffffff\n        /* \"#utility.yul\":839:844   */\n      dup3\n        /* \"#utility.yul\":835:889   */\n      and\n        /* \"#utility.yul\":824:889   */\n      swap1\n      pop\n        /* \"#utility.yul\":769:895   */\n      swap2\n      swap1\n      pop\n      jump\t// out\n        /* \"#utility.yul\":901:997   */\n    tag_57:\n        /* \"#utility.yul\":938:945   */\n      0x00\n        /* \"#utility.yul\":967:991   */\n      tag_86\n        /* \"#utility.yul\":985:990   */\n      dup3\n        /* \"#utility.yul\":967:991   */\n      tag_56\n      jump\t// in\n    tag_86:\n        /* \"#utility.yul\":956:991   */\n      swap1\n      pop\n        /* \"#utility.yul\":901:997   */\n      swap2\n      swap1\n      pop\n      jump\t// out\n        /* \"#utility.yul\":1003:1125   */\n    tag_58:\n        /* \"#utility.yul\":1076:1100   */\n      tag_88\n        /* \"#utility.yul\":1094:1099   */\n      dup2\n        /* \"#utility.yul\":1076:1100   */\n      tag_57\n      jump\t// in\n    tag_88:\n        /* \"#utility.yul\":1069:1074   */\n      dup2\n        /* \"#utility.yul\":1066:1101   */\n      eq\n        /* \"#utility.yul\":1056:1119   */\n      tag_89\n      jumpi\n        /* \"#utility.yul\":1115:1116   */\n      0x00\n        /* \"#utility.yul\":1112:1113   */\n      0x00\n        /* \"#utility.yul\":1105:1117   */\n      revert\n        /* \"#utility.yul\":1056:1119   */\n    tag_89:\n        /* \"#utility.yul\":1003:1125   */\n      pop\n      jump\t// out\n        /* \"#utility.yul\":1131:1270   */\n    tag_59:\n        /* \"#utility.yul\":1177:1182   */\n      0x00\n        /* \"#utility.yul\":1215:1221   */\n      dup2\n        /* \"#utility.yul\":1202:1222   */\n      calldataload\n        /* \"#utility.yul\":1193:1222   */\n      swap1\n      pop\n        /* \"#utility.yul\":1231:1264   */\n      tag_91\n        /* \"#utility.yul\":1258:1263   */\n      dup2\n        /* \"#utility.yul\":1231:1264   */\n      tag_58\n      jump\t// in\n    tag_91:\n        /* \"#utility.yul\":1131:1270   */\n      swap3\n      swap2\n      pop\n      pop\n      jump\t// out\n        /* \"#utility.yul\":1276:1605   */\n    tag_14:\n        /* \"#utility.yul\":1335:1341   */\n      0x00\n        /* \"#utility.yul\":1384:1386   */\n      0x20\n        /* \"#utility.yul\":1372:1381   */\n      dup3\n        /* \"#utility.yul\":1363:1370   */\n      dup5\n        /* \"#utility.yul\":1359:1382   */\n      sub\n        /* \"#utility.yul\":1355:1387   */\n      slt\n        /* \"#utility.yul\":1352:1471   */\n      iszero\n      tag_93\n      jumpi\n        /* \"#utility.yul\":1390:1469   */\n      tag_94\n      tag_54\n      jump\t// in\n    tag_94:\n        /* \"#utility.yul\":1352:1471   */\n    tag_93:\n        /* \"#utility.yul\":1510:1511   */\n      0x00\n        /* \"#utility.yul\":1535:1588   */\n      tag_95\n        /* \"#utility.yul\":1580:1587   */\n      dup5\n        /* \"#utility.yul\":1571:1577   */\n      dup3\n        /* \"#utility.yul\":1560:1569   */\n      dup6\n        /* \"#utility.yul\":1556:1578   */\n      add\n        /* \"#utility.yul\":1535:1588   */\n      tag_59\n      jump\t// in\n    tag_95:\n        /* \"#utility.yul\":1525:1588   */\n      swap2\n      pop\n        /* \"#utility.yul\":1481:1598   */\n      pop\n        /* \"#utility.yul\":1276:1605   */\n      swap3\n      swap2\n      pop\n      pop\n      jump\t// out\n        /* \"#utility.yul\":1611:1733   */\n    tag_60:\n        /* \"#utility.yul\":1684:1708   */\n      tag_97\n        /* \"#utility.yul\":1702:1707   */\n      dup2\n        /* \"#utility.yul\":1684:1708   */\n      tag_51\n      jump\t// in\n    tag_97:\n        /* \"#utility.yul\":1677:1682   */\n      dup2\n        /* \"#utility.yul\":1674:1709   */\n      eq\n        /* \"#utility.yul\":1664:1727   */\n      tag_98\n      jumpi\n        /* \"#utility.yul\":1723:1724   */\n      0x00\n        /* \"#utility.yul\":1720:1721   */\n      0x00\n        /* \"#utility.yul\":1713:1725   */\n      revert\n        /* \"#utility.yul\":1664:1727   */\n    tag_98:\n        /* \"#utility.yul\":1611:1733   */\n      pop\n      jump\t// out\n        /* \"#utility.yul\":1739:1878   */\n    tag_61:\n        /* \"#utility.yul\":1785:1790   */\n      0x00\n        /* \"#utility.yul\":1823:1829   */\n      dup2\n        /* \"#utility.yul\":1810:1830   */\n      calldataload\n        /* \"#utility.yul\":1801:1830   */\n      swap1\n      pop\n        /* \"#utility.yul\":1839:1872   */\n      tag_100\n        /* \"#utility.yul\":1866:1871   */\n      dup2\n        /* \"#utility.yul\":1839:1872   */\n      tag_60\n      jump\t// in\n    tag_100:\n        /* \"#utility.yul\":1739:1878   */\n      swap3\n      swap2\n      pop\n      pop\n      jump\t// out\n        /* \"#utility.yul\":1884:2213   */\n    tag_22:\n        /* \"#utility.yul\":1943:1949   */\n      0x00\n        /* \"#utility.yul\":1992:1994   */\n      0x20\n        /* \"#utility.yul\":1980:1989   */\n      dup3\n        /* \"#utility.yul\":1971:1978   */\n      dup5\n        /* \"#utility.yul\":1967:1990   */\n      sub\n        /* \"#utility.yul\":1963:1995   */\n      slt\n        /* \"#utility.yul\":1960:2079   */\n      iszero\n      tag_102\n      jumpi\n        /* \"#utility.yul\":1998:2077   */\n      tag_103\n      tag_54\n      jump\t// in\n    tag_103:\n        /* \"#utility.yul\":1960:2079   */\n    tag_102:\n        /* \"#utility.yul\":2118:2119   */\n      0x00\n        /* \"#utility.yul\":2143:2196   */\n      tag_104\n        /* \"#utility.yul\":2188:2195   */\n      dup5\n        /* \"#utility.yul\":2179:2185   */\n      dup3\n        /* \"#utility.yul\":2168:2177   */\n      dup6\n        /* \"#utility.yul\":2164:2186   */\n      add\n        /* \"#utility.yul\":2143:2196   */\n      tag_61\n      jump\t// in\n    tag_104:\n        /* \"#utility.yul\":2133:2196   */\n      swap2\n      pop\n        /* \"#utility.yul\":2089:2206   */\n      pop\n        /* \"#utility.yul\":1884:2213   */\n      swap3\n      swap2\n      pop\n      pop\n      jump\t// out\n        /* \"#utility.yul\":2219:2337   */\n    tag_62:\n        /* \"#utility.yul\":2306:2330   */\n      tag_106\n        /* \"#utility.yul\":2324:2329   */\n      dup2\n        /* \"#utility.yul\":2306:2330   */\n      tag_57\n      jump\t// in\n    tag_106:\n        /* \"#utility.yul\":2301:2304   */\n      dup3\n        /* \"#utility.yul\":2294:2331   */\n      mstore\n        /* \"#utility.yul\":2219:2337   */\n      pop\n      pop\n      jump\t// out\n        /* \"#utility.yul\":2343:2565   */\n    tag_25:\n        /* \"#utility.yul\":2436:2440   */\n      0x00\n        /* \"#utility.yul\":2474:2476   */\n      0x20\n        /* \"#utility.yul\":2463:2472   */\n      dup3\n        /* \"#utility.yul\":2459:2477   */\n      add\n        /* \"#utility.yul\":2451:2477   */\n      swap1\n      pop\n        /* \"#utility.yul\":2487:2558   */\n      tag_108\n        /* \"#utility.yul\":2555:2556   */\n      0x00\n        /* \"#utility.yul\":2544:2553   */\n      dup4\n        /* \"#utility.yul\":2540:2557   */\n      add\n        /* \"#utility.yul\":2531:2537   */\n      dup5\n        /* \"#utility.yul\":2487:2558   */\n      tag_62\n      jump\t// in\n    tag_108:\n        /* \"#utility.yul\":2343:2565   */\n      swap3\n      swap2\n      pop\n      pop\n      jump\t// out\n        /* \"#utility.yul\":2571:2740   */\n    tag_63:\n        /* \"#utility.yul\":2655:2666   */\n      0x00\n        /* \"#utility.yul\":2689:2695   */\n      dup3\n        /* \"#utility.yul\":2684:2687   */\n      dup3\n        /* \"#utility.yul\":2677:2696   */\n      mstore\n        /* \"#utility.yul\":2729:2733   */\n      0x20\n        /* \"#utility.yul\":2724:2727   */\n      dup3\n        /* \"#utility.yul\":2720:2734   */\n      add\n        /* \"#utility.yul\":2705:2734   */\n      swap1\n      pop\n        /* \"#utility.yul\":2571:2740   */\n      swap3\n      swap2\n      pop\n      pop\n      jump\t// out\n        /* \"#utility.yul\":2746:2914   */\n    tag_64:\n        /* \"#utility.yul\":2886:2906   */\n      0x4469646e27742073656e6420656e6f7567680000000000000000000000000000\n        /* \"#utility.yul\":2882:2883   */\n      0x00\n        /* \"#utility.yul\":2874:2880   */\n      dup3\n        /* \"#utility.yul\":2870:2884   */\n      add\n        /* \"#utility.yul\":2863:2907   */\n      mstore\n        /* \"#utility.yul\":2746:2914   */\n      pop\n      jump\t// out\n        /* \"#utility.yul\":2920:3286   */\n    tag_65:\n        /* \"#utility.yul\":3062:3065   */\n      0x00\n        /* \"#utility.yul\":3083:3150   */\n      tag_112\n        /* \"#utility.yul\":3147:3149   */\n      0x12\n        /* \"#utility.yul\":3142:3145   */\n      dup4\n        /* \"#utility.yul\":3083:3150   */\n      tag_63\n      jump\t// in\n    tag_112:\n        /* \"#utility.yul\":3076:3150   */\n      swap2\n      pop\n        /* \"#utility.yul\":3159:3252   */\n      tag_113\n        /* \"#utility.yul\":3248:3251   */\n      dup3\n        /* \"#utility.yul\":3159:3252   */\n      tag_64\n      jump\t// in\n    tag_113:\n        /* \"#utility.yul\":3277:3279   */\n      0x20\n        /* \"#utility.yul\":3272:3275   */\n      dup3\n        /* \"#utility.yul\":3268:3280   */\n      add\n        /* \"#utility.yul\":3261:3280   */\n      swap1\n      pop\n        /* \"#utility.yul\":2920:3286   */\n      swap2\n      swap1\n      pop\n      jump\t// out\n        /* \"#utility.yul\":3292:3711   */\n    tag_31:\n        /* \"#utility.yul\":3458:3462   */\n      0x00\n        /* \"#utility.yul\":3496:3498   */\n      0x20\n        /* \"#utility.yul\":3485:3494   */\n      dup3\n        /* \"#utility.yul\":3481:3499   */\n      add\n        /* \"#utility.yul\":3473:3499   */\n      swap1\n      pop\n        /* \"#utility.yul\":3545:3554   */\n      dup2\n        /* \"#utility.yul\":3539:3543   */\n      dup2\n        /* \"#utility.yul\":3535:3555   */\n      sub\n        /* \"#utility.yul\":3531:3532   */\n      0x00\n        /* \"#utility.yul\":3520:3529   */\n      dup4\n        /* \"#utility.yul\":3516:3533   */\n      add\n        /* \"#utility.yul\":3509:3556   */\n      mstore\n        /* \"#utility.yul\":3573:3704   */\n      tag_115\n        /* \"#utility.yul\":3699:3703   */\n      dup2\n        /* \"#utility.yul\":3573:3704   */\n      tag_65\n      jump\t// in\n    tag_115:\n        /* \"#utility.yul\":3565:3704   */\n      swap1\n      pop\n        /* \"#utility.yul\":3292:3711   */\n      swap2\n      swap1\n      pop\n      jump\t// out\n        /* \"#utility.yul\":3717:3897   */\n    tag_66:\n        /* \"#utility.yul\":3765:3842   */\n      0x4e487b7100000000000000000000000000000000000000000000000000000000\n        /* \"#utility.yul\":3762:3763   */\n      0x00\n        /* \"#utility.yul\":3755:3843   */\n      mstore\n        /* \"#utility.yul\":3862:3866   */\n      0x11\n        /* \"#utility.yul\":3859:3860   */\n      0x04\n        /* \"#utility.yul\":3852:3867   */\n      mstore\n        /* \"#utility.yul\":3886:3890   */\n      0x24\n        /* \"#utility.yul\":3883:3884   */\n      0x00\n        /* \"#utility.yul\":3876:3891   */\n      revert\n        /* \"#utility.yul\":3903:4094   */\n    tag_34:\n        /* \"#utility.yul\":3943:3946   */\n      0x00\n        /* \"#utility.yul\":3962:3982   */\n      tag_118\n        /* \"#utility.yul\":3980:3981   */\n      dup3\n        /* \"#utility.yul\":3962:3982   */\n      tag_51\n      jump\t// in\n    tag_118:\n        /* \"#utility.yul\":3957:3982   */\n      swap2\n      pop\n        /* \"#utility.yul\":3996:4016   */\n      tag_119\n        /* \"#utility.yul\":4014:4015   */\n      dup4\n        /* \"#utility.yul\":3996:4016   */\n      tag_51\n      jump\t// in\n    tag_119:\n        /* \"#utility.yul\":3991:4016   */\n      swap3\n      pop\n        /* \"#utility.yul\":4039:4040   */\n      dup3\n        /* \"#utility.yul\":4036:4037   */\n      dup3\n        /* \"#utility.yul\":4032:4041   */\n      add\n        /* \"#utility.yul\":4025:4041   */\n      swap1\n      pop\n        /* \"#utility.yul\":4060:4063   */\n      dup1\n        /* \"#utility.yul\":4057:4058   */\n      dup3\n        /* \"#utility.yul\":4054:4064   */\n      gt\n        /* \"#utility.yul\":4051:4087   */\n      iszero\n      tag_120\n      jumpi\n        /* \"#utility.yul\":4067:4085   */\n      tag_121\n      tag_66\n      jump\t// in\n    tag_121:\n        /* \"#utility.yul\":4051:4087   */\n    tag_120:\n        /* \"#utility.yul\":3903:4094   */\n      swap3\n      swap2\n      pop\n      pop\n      jump\t// out\n        /* \"#utility.yul\":4100:4510   */\n    tag_41:\n        /* \"#utility.yul\":4140:4147   */\n      0x00\n        /* \"#utility.yul\":4163:4183   */\n      tag_123\n        /* \"#utility.yul\":4181:4182   */\n      dup3\n        /* \"#utility.yul\":4163:4183   */\n      tag_51\n      jump\t// in\n    tag_123:\n        /* \"#utility.yul\":4158:4183   */\n      swap2\n      pop\n        /* \"#utility.yul\":4197:4217   */\n      tag_124\n        /* \"#utility.yul\":4215:4216   */\n      dup4\n        /* \"#utility.yul\":4197:4217   */\n      tag_51\n      jump\t// in\n    tag_124:\n        /* \"#utility.yul\":4192:4217   */\n      swap3\n      pop\n        /* \"#utility.yul\":4252:4253   */\n      dup3\n        /* \"#utility.yul\":4249:4250   */\n      dup3\n        /* \"#utility.yul\":4245:4254   */\n      mul\n        /* \"#utility.yul\":4274:4304   */\n      tag_125\n        /* \"#utility.yul\":4292:4303   */\n      dup2\n        /* \"#utility.yul\":4274:4304   */\n      tag_51\n      jump\t// in\n    tag_125:\n        /* \"#utility.yul\":4263:4304   */\n      swap2\n      pop\n        /* \"#utility.yul\":4453:4454   */\n      dup3\n        /* \"#utility.yul\":4444:4451   */\n      dup3\n        /* \"#utility.yul\":4440:4455   */\n      div\n        /* \"#utility.yul\":4437:4438   */\n      dup5\n        /* \"#utility.yul\":4434:4456   */\n      eq\n        /* \"#utility.yul\":4414:4415   */\n      dup4\n        /* \"#utility.yul\":4407:4416   */\n      iszero\n        /* \"#utility.yul\":4387:4470   */\n      or\n        /* \"#utility.yul\":4364:4503   */\n      tag_126\n      jumpi\n        /* \"#utility.yul\":4483:4501   */\n      tag_127\n      tag_66\n      jump\t// in\n    tag_127:\n        /* \"#utility.yul\":4364:4503   */\n    tag_126:\n        /* \"#utility.yul\":4148:4510   */\n      pop\n        /* \"#utility.yul\":4100:4510   */\n      swap3\n      swap2\n      pop\n      pop\n      jump\t// out\n        /* \"#utility.yul\":4516:4696   */\n    tag_67:\n        /* \"#utility.yul\":4564:4641   */\n      0x4e487b7100000000000000000000000000000000000000000000000000000000\n        /* \"#utility.yul\":4561:4562   */\n      0x00\n        /* \"#utility.yul\":4554:4642   */\n      mstore\n        /* \"#utility.yul\":4661:4665   */\n      0x12\n        /* \"#utility.yul\":4658:4659   */\n      0x04\n        /* \"#utility.yul\":4651:4666   */\n      mstore\n        /* \"#utility.yul\":4685:4689   */\n      0x24\n        /* \"#utility.yul\":4682:4683   */\n      0x00\n        /* \"#utility.yul\":4675:4690   */\n      revert\n        /* \"#utility.yul\":4702:4887   */\n    tag_43:\n        /* \"#utility.yul\":4742:4743   */\n      0x00\n        /* \"#utility.yul\":4759:4779   */\n      tag_130\n        /* \"#utility.yul\":4777:4778   */\n      dup3\n        /* \"#utility.yul\":4759:4779   */\n      tag_51\n      jump\t// in\n    tag_130:\n        /* \"#utility.yul\":4754:4779   */\n      swap2\n      pop\n        /* \"#utility.yul\":4793:4813   */\n      tag_131\n        /* \"#utility.yul\":4811:4812   */\n      dup4\n        /* \"#utility.yul\":4793:4813   */\n      tag_51\n      jump\t// in\n    tag_131:\n        /* \"#utility.yul\":4788:4813   */\n      swap3\n      pop\n        /* \"#utility.yul\":4832:4833   */\n      dup3\n        /* \"#utility.yul\":4822:4857   */\n      tag_132\n      jumpi\n        /* \"#utility.yul\":4837:4855   */\n      tag_133\n      tag_67\n      jump\t// in\n    tag_133:\n        /* \"#utility.yul\":4822:4857   */\n    tag_132:\n        /* \"#utility.yul\":4879:4880   */\n      dup3\n        /* \"#utility.yul\":4876:4877   */\n      dup3\n        /* \"#utility.yul\":4872:4881   */\n      div\n        /* \"#utility.yul\":4867:4881   */\n      swap1\n      pop\n        /* \"#utility.yul\":4702:4887   */\n      swap3\n      swap2\n      pop\n      pop\n      jump\t// out\n        /* \"#utility.yul\":4893:4998   */\n    tag_68:\n        /* \"#utility.yul\":4929:4936   */\n      0x00\n        /* \"#utility.yul\":4969:4991   */\n      0xffffffffffffffffffff\n        /* \"#utility.yul\":4962:4967   */\n      dup3\n        /* \"#utility.yul\":4958:4992   */\n      and\n        /* \"#utility.yul\":4947:4992   */\n      swap1\n      pop\n        /* \"#utility.yul\":4893:4998   */\n      swap2\n      swap1\n      pop\n      jump\t// out\n        /* \"#utility.yul\":5004:5124   */\n    tag_69:\n        /* \"#utility.yul\":5076:5099   */\n      tag_136\n        /* \"#utility.yul\":5093:5098   */\n      dup2\n        /* \"#utility.yul\":5076:5099   */\n      tag_68\n      jump\t// in\n    tag_136:\n        /* \"#utility.yul\":5069:5074   */\n      dup2\n        /* \"#utility.yul\":5066:5100   */\n      eq\n        /* \"#utility.yul\":5056:5118   */\n      tag_137\n      jumpi\n        /* \"#utility.yul\":5114:5115   */\n      0x00\n        /* \"#utility.yul\":5111:5112   */\n      0x00\n        /* \"#utility.yul\":5104:5116   */\n      revert\n        /* \"#utility.yul\":5056:5118   */\n    tag_137:\n        /* \"#utility.yul\":5004:5124   */\n      pop\n      jump\t// out\n        /* \"#utility.yul\":5130:5271   */\n    tag_70:\n        /* \"#utility.yul\":5186:5191   */\n      0x00\n        /* \"#utility.yul\":5217:5223   */\n      dup2\n        /* \"#utility.yul\":5211:5224   */\n      mload\n        /* \"#utility.yul\":5202:5224   */\n      swap1\n      pop\n        /* \"#utility.yul\":5233:5265   */\n      tag_139\n        /* \"#utility.yul\":5259:5264   */\n      dup2\n        /* \"#utility.yul\":5233:5265   */\n      tag_69\n      jump\t// in\n    tag_139:\n        /* \"#utility.yul\":5130:5271   */\n      swap3\n      swap2\n      pop\n      pop\n      jump\t// out\n        /* \"#utility.yul\":5277:5353   */\n    tag_71:\n        /* \"#utility.yul\":5313:5320   */\n      0x00\n        /* \"#utility.yul\":5342:5347   */\n      dup2\n        /* \"#utility.yul\":5331:5347   */\n      swap1\n      pop\n        /* \"#utility.yul\":5277:5353   */\n      swap2\n      swap1\n      pop\n      jump\t// out\n        /* \"#utility.yul\":5359:5479   */\n    tag_72:\n        /* \"#utility.yul\":5431:5454   */\n      tag_142\n        /* \"#utility.yul\":5448:5453   */\n      dup2\n        /* \"#utility.yul\":5431:5454   */\n      tag_71\n      jump\t// in\n    tag_142:\n        /* \"#utility.yul\":5424:5429   */\n      dup2\n        /* \"#utility.yul\":5421:5455   */\n      eq\n        /* \"#utility.yul\":5411:5473   */\n      tag_143\n      jumpi\n        /* \"#utility.yul\":5469:5470   */\n      0x00\n        /* \"#utility.yul\":5466:5467   */\n      0x00\n        /* \"#utility.yul\":5459:5471   */\n      revert\n        /* \"#utility.yul\":5411:5473   */\n    tag_143:\n        /* \"#utility.yul\":5359:5479   */\n      pop\n      jump\t// out\n        /* \"#utility.yul\":5485:5626   */\n    tag_73:\n        /* \"#utility.yul\":5541:5546   */\n      0x00\n        /* \"#utility.yul\":5572:5578   */\n      dup2\n        /* \"#utility.yul\":5566:5579   */\n      mload\n        /* \"#utility.yul\":5557:5579   */\n      swap1\n      pop\n        /* \"#utility.yul\":5588:5620   */\n      tag_145\n        /* \"#utility.yul\":5614:5619   */\n      dup2\n        /* \"#utility.yul\":5588:5620   */\n      tag_72\n      jump\t// in\n    tag_145:\n        /* \"#utility.yul\":5485:5626   */\n      swap3\n      swap2\n      pop\n      pop\n      jump\t// out\n        /* \"#utility.yul\":5632:5775   */\n    tag_74:\n        /* \"#utility.yul\":5689:5694   */\n      0x00\n        /* \"#utility.yul\":5720:5726   */\n      dup2\n        /* \"#utility.yul\":5714:5727   */\n      mload\n        /* \"#utility.yul\":5705:5727   */\n      swap1\n      pop\n        /* \"#utility.yul\":5736:5769   */\n      tag_147\n        /* \"#utility.yul\":5763:5768   */\n      dup2\n        /* \"#utility.yul\":5736:5769   */\n      tag_60\n      jump\t// in\n    tag_147:\n        /* \"#utility.yul\":5632:5775   */\n      swap3\n      swap2\n      pop\n      pop\n      jump\t// out\n        /* \"#utility.yul\":5781:6752   */\n    tag_48:\n        /* \"#utility.yul\":5884:5890   */\n      0x00\n        /* \"#utility.yul\":5892:5898   */\n      0x00\n        /* \"#utility.yul\":5900:5906   */\n      0x00\n        /* \"#utility.yul\":5908:5914   */\n      0x00\n        /* \"#utility.yul\":5916:5922   */\n      0x00\n        /* \"#utility.yul\":5965:5968   */\n      0xa0\n        /* \"#utility.yul\":5953:5962   */\n      dup7\n        /* \"#utility.yul\":5944:5951   */\n      dup9\n        /* \"#utility.yul\":5940:5963   */\n      sub\n        /* \"#utility.yul\":5936:5969   */\n      slt\n        /* \"#utility.yul\":5933:6053   */\n      iszero\n      tag_149\n      jumpi\n        /* \"#utility.yul\":5972:6051   */\n      tag_150\n      tag_54\n      jump\t// in\n    tag_150:\n        /* \"#utility.yul\":5933:6053   */\n    tag_149:\n        /* \"#utility.yul\":6092:6093   */\n      0x00\n        /* \"#utility.yul\":6117:6180   */\n      tag_151\n        /* \"#utility.yul\":6172:6179   */\n      dup9\n        /* \"#utility.yul\":6163:6169   */\n      dup3\n        /* \"#utility.yul\":6152:6161   */\n      dup10\n        /* \"#utility.yul\":6148:6170   */\n      add\n        /* \"#utility.yul\":6117:6180   */\n      tag_70\n      jump\t// in\n    tag_151:\n        /* \"#utility.yul\":6107:6180   */\n      swap6\n      pop\n        /* \"#utility.yul\":6063:6190   */\n      pop\n        /* \"#utility.yul\":6229:6231   */\n      0x20\n        /* \"#utility.yul\":6255:6318   */\n      tag_152\n        /* \"#utility.yul\":6310:6317   */\n      dup9\n        /* \"#utility.yul\":6301:6307   */\n      dup3\n        /* \"#utility.yul\":6290:6299   */\n      dup10\n        /* \"#utility.yul\":6286:6308   */\n      add\n        /* \"#utility.yul\":6255:6318   */\n      tag_73\n      jump\t// in\n    tag_152:\n        /* \"#utility.yul\":6245:6318   */\n      swap5\n      pop\n        /* \"#utility.yul\":6200:6328   */\n      pop\n        /* \"#utility.yul\":6367:6369   */\n      0x40\n        /* \"#utility.yul\":6393:6457   */\n      tag_153\n        /* \"#utility.yul\":6449:6456   */\n      dup9\n        /* \"#utility.yul\":6440:6446   */\n      dup3\n        /* \"#utility.yul\":6429:6438   */\n      dup10\n        /* \"#utility.yul\":6425:6447   */\n      add\n        /* \"#utility.yul\":6393:6457   */\n      tag_74\n      jump\t// in\n    tag_153:\n        /* \"#utility.yul\":6383:6457   */\n      swap4\n      pop\n        /* \"#utility.yul\":6338:6467   */\n      pop\n        /* \"#utility.yul\":6506:6508   */\n      0x60\n        /* \"#utility.yul\":6532:6596   */\n      tag_154\n        /* \"#utility.yul\":6588:6595   */\n      dup9\n        /* \"#utility.yul\":6579:6585   */\n      dup3\n        /* \"#utility.yul\":6568:6577   */\n      dup10\n        /* \"#utility.yul\":6564:6586   */\n      add\n        /* \"#utility.yul\":6532:6596   */\n      tag_74\n      jump\t// in\n    tag_154:\n        /* \"#utility.yul\":6522:6596   */\n      swap3\n      pop\n        /* \"#utility.yul\":6477:6606   */\n      pop\n        /* \"#utility.yul\":6645:6648   */\n      0x80\n        /* \"#utility.yul\":6672:6735   */\n      tag_155\n        /* \"#utility.yul\":6727:6734   */\n      dup9\n        /* \"#utility.yul\":6718:6724   */\n      dup3\n        /* \"#utility.yul\":6707:6716   */\n      dup10\n        /* \"#utility.yul\":6703:6725   */\n      add\n        /* \"#utility.yul\":6672:6735   */\n      tag_70\n      jump\t// in\n    tag_155:\n        /* \"#utility.yul\":6662:6735   */\n      swap2\n      pop\n        /* \"#utility.yul\":6616:6745   */\n      pop\n        /* \"#utility.yul\":5781:6752   */\n      swap3\n      swap6\n      pop\n      swap3\n      swap6\n      swap1\n      swap4\n      pop\n      jump\t// out\n        /* \"#utility.yul\":6758:7314   */\n    tag_50:\n        /* \"#utility.yul\":6797:6804   */\n      0x00\n        /* \"#utility.yul\":6820:6839   */\n      tag_157\n        /* \"#utility.yul\":6837:6838   */\n      dup3\n        /* \"#utility.yul\":6820:6839   */\n      tag_71\n      jump\t// in\n    tag_157:\n        /* \"#utility.yul\":6815:6839   */\n      swap2\n      pop\n        /* \"#utility.yul\":6853:6872   */\n      tag_158\n        /* \"#utility.yul\":6870:6871   */\n      dup4\n        /* \"#utility.yul\":6853:6872   */\n      tag_71\n      jump\t// in\n    tag_158:\n        /* \"#utility.yul\":6848:6872   */\n      swap3\n      pop\n        /* \"#utility.yul\":6907:6908   */\n      dup3\n        /* \"#utility.yul\":6904:6905   */\n      dup3\n        /* \"#utility.yul\":6900:6909   */\n      mul\n        /* \"#utility.yul\":6929:6958   */\n      tag_159\n        /* \"#utility.yul\":6946:6957   */\n      dup2\n        /* \"#utility.yul\":6929:6958   */\n      tag_71\n      jump\t// in\n    tag_159:\n        /* \"#utility.yul\":6918:6958   */\n      swap2\n      pop\n        /* \"#utility.yul\":7016:7082   */\n      0x8000000000000000000000000000000000000000000000000000000000000000\n        /* \"#utility.yul\":7013:7014   */\n      dup5\n        /* \"#utility.yul\":7010:7083   */\n      eq\n        /* \"#utility.yul\":7006:7007   */\n      0x00\n        /* \"#utility.yul\":7003:7004   */\n      dup5\n        /* \"#utility.yul\":6999:7008   */\n      slt\n        /* \"#utility.yul\":6995:7084   */\n      and\n        /* \"#utility.yul\":6992:7107   */\n      iszero\n      tag_160\n      jumpi\n        /* \"#utility.yul\":7087:7105   */\n      tag_161\n      tag_66\n      jump\t// in\n    tag_161:\n        /* \"#utility.yul\":6992:7107   */\n    tag_160:\n        /* \"#utility.yul\":7257:7258   */\n      dup3\n        /* \"#utility.yul\":7248:7255   */\n      dup3\n        /* \"#utility.yul\":7243:7259   */\n      sdiv\n        /* \"#utility.yul\":7240:7241   */\n      dup5\n        /* \"#utility.yul\":7237:7260   */\n      eq\n        /* \"#utility.yul\":7217:7218   */\n      dup4\n        /* \"#utility.yul\":7210:7219   */\n      iszero\n        /* \"#utility.yul\":7190:7274   */\n      or\n        /* \"#utility.yul\":7167:7307   */\n      tag_162\n      jumpi\n        /* \"#utility.yul\":7287:7305   */\n      tag_163\n      tag_66\n      jump\t// in\n    tag_163:\n        /* \"#utility.yul\":7167:7307   */\n    tag_162:\n        /* \"#utility.yul\":6805:7314   */\n      pop\n        /* \"#utility.yul\":6758:7314   */\n      swap3\n      swap2\n      pop\n      pop\n      jump\t// out\n\n    auxdata: 0xa26469706673582212202693f9521bf681305757b56870a1735ac4abdd437df448463b2b5f0cf84a626e64736f6c634300081e0033\n}\n",
				"bytecode": {
					"linkReferences": {},
					"object": "60806040526802b5e3af16b18800005f55348015601a575f5ffd5b50610777806100285f395ff3fe60806040526004361061003e575f3560e01c8063098de820146100425780634407e1e81461006c578063b60d4288146100a8578063dc0d3dff146100b2575b5f5ffd5b34801561004d575f5ffd5b506100566100ee565b6040516100639190610339565b60405180910390f35b348015610077575f5ffd5b50610092600480360381019061008d91906103b0565b6100f3565b60405161009f9190610339565b60405180910390f35b6100b0610108565b005b3480156100bd575f5ffd5b506100d860048036038101906100d39190610405565b610209565b6040516100e5919061043f565b60405180910390f35b5f5481565b6002602052805f5260405f205f915090505481565b5f5461011334610244565b1015610154576040517f08c379a000000000000000000000000000000000000000000000000000000000815260040161014b906104b2565b60405180910390fd5b600133908060018154018082558091505060019003905f5260205f20015f9091909190916101000a81548173ffffffffffffffffffffffffffffffffffffffff021916908373ffffffffffffffffffffffffffffffffffffffff1602179055503460025f3373ffffffffffffffffffffffffffffffffffffffff1673ffffffffffffffffffffffffffffffffffffffff1681526020019081526020015f205f82825461020091906104fd565b92505081905550565b60018181548110610218575f80fd5b905f5260205f20015f915054906101000a900473ffffffffffffffffffffffffffffffffffffffff1681565b5f5f61024e61027c565b90505f670de0b6b3a764000084836102669190610530565b610270919061059e565b90508092505050919050565b5f5f73694aa1769357215de4fac081bf1f309adc32530690505f8173ffffffffffffffffffffffffffffffffffffffff1663feaf968c6040518163ffffffff1660e01b815260040160a060405180830381865afa1580156102df573d5f5f3e3d5ffd5b505050506040513d601f19601f820116820180604052508101906103039190610654565b5050509150506402540be4008161031a91906106cb565b9250505090565b5f819050919050565b61033381610321565b82525050565b5f60208201905061034c5f83018461032a565b92915050565b5f5ffd5b5f73ffffffffffffffffffffffffffffffffffffffff82169050919050565b5f61037f82610356565b9050919050565b61038f81610375565b8114610399575f5ffd5b50565b5f813590506103aa81610386565b92915050565b5f602082840312156103c5576103c4610352565b5b5f6103d28482850161039c565b91505092915050565b6103e481610321565b81146103ee575f5ffd5b50565b5f813590506103ff816103db565b92915050565b5f6020828403121561041a57610419610352565b5b5f610427848285016103f1565b91505092915050565b61043981610375565b82525050565b5f6020820190506104525f830184610430565b92915050565b5f82825260208201905092915050565b7f4469646e27742073656e6420656e6f75676800000000000000000000000000005f82015250565b5f61049c601283610458565b91506104a782610468565b602082019050919050565b5f6020820190508181035f8301526104c981610490565b9050919050565b7f4e487b71000000000000000000000000000000000000000000000000000000005f52601160045260245ffd5b5f61050782610321565b915061051283610321565b925082820190508082111561052a576105296104d0565b5b92915050565b5f61053a82610321565b915061054583610321565b925082820261055381610321565b9150828204841483151761056a576105696104d0565b5b5092915050565b7f4e487b71000000000000000000000000000000000000000000000000000000005f52601260045260245ffd5b5f6105a882610321565b91506105b383610321565b9250826105c3576105c2610571565b5b828204905092915050565b5f69ffffffffffffffffffff82169050919050565b6105ec816105ce565b81146105f6575f5ffd5b50565b5f81519050610607816105e3565b92915050565b5f819050919050565b61061f8161060d565b8114610629575f5ffd5b50565b5f8151905061063a81610616565b92915050565b5f8151905061064e816103db565b92915050565b5f5f5f5f5f60a0868803121561066d5761066c610352565b5b5f61067a888289016105f9565b955050602061068b8882890161062c565b945050604061069c88828901610640565b93505060606106ad88828901610640565b92505060806106be888289016105f9565b9150509295509295909350565b5f6106d58261060d565b91506106e08361060d565b92508282026106ee8161060d565b91507f800000000000000000000000000000000000000000000000000000000000000084145f84121615610725576107246104d0565b5b828205841483151761073a576107396104d0565b5b509291505056fea26469706673582212202693f9521bf681305757b56870a1735ac4abdd437df448463b2b5f0cf84a626e64736f6c634300081e0033",
					"opcodes": "PUSH1 0x80 PUSH1 0x40 MSTORE PUSH9 0x2B5E3AF16B1880000 PUSH0 SSTORE CALLVALUE DUP1 ISZERO PUSH1 0x1A JUMPI PUSH0 PUSH0 REVERT JUMPDEST POP PUSH2 0x777 DUP1 PUSH2 0x28 PUSH0 CODECOPY PUSH0 RETURN INVALID PUSH1 0x80 PUSH1 0x40 MSTORE PUSH1 0x4 CALLDATASIZE LT PUSH2 0x3E JUMPI PUSH0 CALLDATALOAD PUSH1 0xE0 SHR DUP1 PUSH4 0x98DE820 EQ PUSH2 0x42 JUMPI DUP1 PUSH4 0x4407E1E8 EQ PUSH2 0x6C JUMPI DUP1 PUSH4 0xB60D4288 EQ PUSH2 0xA8 JUMPI DUP1 PUSH4 0xDC0D3DFF EQ PUSH2 0xB2 JUMPI JUMPDEST PUSH0 PUSH0 REVERT JUMPDEST CALLVALUE DUP1 ISZERO PUSH2 0x4D JUMPI PUSH0 PUSH0 REVERT JUMPDEST POP PUSH2 0x56 PUSH2 0xEE JUMP JUMPDEST PUSH1 0x40 MLOAD PUSH2 0x63 SWAP2 SWAP1 PUSH2 0x339 JUMP JUMPDEST PUSH1 0x40 MLOAD DUP1 SWAP2 SUB SWAP1 RETURN JUMPDEST CALLVALUE DUP1 ISZERO PUSH2 0x77 JUMPI PUSH0 PUSH0 REVERT JUMPDEST POP PUSH2 0x92 PUSH1 0x4 DUP1 CALLDATASIZE SUB DUP2 ADD SWAP1 PUSH2 0x8D SWAP2 SWAP1 PUSH2 0x3B0 JUMP JUMPDEST PUSH2 0xF3 JUMP JUMPDEST PUSH1 0x40 MLOAD PUSH2 0x9F SWAP2 SWAP1 PUSH2 0x339 JUMP JUMPDEST PUSH1 0x40 MLOAD DUP1 SWAP2 SUB SWAP1 RETURN JUMPDEST PUSH2 0xB0 PUSH2 0x108 JUMP JUMPDEST STOP JUMPDEST CALLVALUE DUP1 ISZERO PUSH2 0xBD JUMPI PUSH0 PUSH0 REVERT JUMPDEST POP PUSH2 0xD8 PUSH1 0x4 DUP1 CALLDATASIZE SUB DUP2 ADD SWAP1 PUSH2 0xD3 SWAP2 SWAP1 PUSH2 0x405 JUMP JUMPDEST PUSH2 0x209 JUMP JUMPDEST PUSH1 0x40 MLOAD PUSH2 0xE5 SWAP2 SWAP1 PUSH2 0x43F JUMP JUMPDEST PUSH1 0x40 MLOAD DUP1 SWAP2 SUB SWAP1 RETURN JUMPDEST PUSH0 SLOAD DUP2 JUMP JUMPDEST PUSH1 0x2 PUSH1 0x20 MSTORE DUP1 PUSH0 MSTORE PUSH1 0x40 PUSH0 KECCAK256 PUSH0 SWAP2 POP SWAP1 POP SLOAD DUP2 JUMP JUMPDEST PUSH0 SLOAD PUSH2 0x113 CALLVALUE PUSH2 0x244 JUMP JUMPDEST LT ISZERO PUSH2 0x154 JUMPI PUSH1 0x40 MLOAD PUSH32 0x8C379A000000000000000000000000000000000000000000000000000000000 DUP2 MSTORE PUSH1 0x4 ADD PUSH2 0x14B SWAP1 PUSH2 0x4B2 JUMP JUMPDEST PUSH1 0x40 MLOAD DUP1 SWAP2 SUB SWAP1 REVERT JUMPDEST PUSH1 0x1 CALLER SWAP1 DUP1 PUSH1 0x1 DUP2 SLOAD ADD DUP1 DUP3 SSTORE DUP1 SWAP2 POP POP PUSH1 0x1 SWAP1 SUB SWAP1 PUSH0 MSTORE PUSH1 0x20 PUSH0 KECCAK256 ADD PUSH0 SWAP1 SWAP2 SWAP1 SWAP2 SWAP1 SWAP2 PUSH2 0x100 EXP DUP2 SLOAD DUP2 PUSH20 0xFFFFFFFFFFFFFFFFFFFFFFFFFFFFFFFFFFFFFFFF MUL NOT AND SWAP1 DUP4 PUSH20 0xFFFFFFFFFFFFFFFFFFFFFFFFFFFFFFFFFFFFFFFF AND MUL OR SWAP1 SSTORE POP CALLVALUE PUSH1 0x2 PUSH0 CALLER PUSH20 0xFFFFFFFFFFFFFFFFFFFFFFFFFFFFFFFFFFFFFFFF AND PUSH20 0xFFFFFFFFFFFFFFFFFFFFFFFFFFFFFFFFFFFFFFFF AND DUP2 MSTORE PUSH1 0x20 ADD SWAP1 DUP2 MSTORE PUSH1 0x20 ADD PUSH0 KECCAK256 PUSH0 DUP3 DUP3 SLOAD PUSH2 0x200 SWAP2 SWAP1 PUSH2 0x4FD JUMP JUMPDEST SWAP3 POP POP DUP2 SWAP1 SSTORE POP JUMP JUMPDEST PUSH1 0x1 DUP2 DUP2 SLOAD DUP2 LT PUSH2 0x218 JUMPI PUSH0 DUP1 REVERT JUMPDEST SWAP1 PUSH0 MSTORE PUSH1 0x20 PUSH0 KECCAK256 ADD PUSH0 SWAP2 POP SLOAD SWAP1 PUSH2 0x100 EXP SWAP1 DIV PUSH20 0xFFFFFFFFFFFFFFFFFFFFFFFFFFFFFFFFFFFFFFFF AND DUP2 JUMP JUMPDEST PUSH0 PUSH0 PUSH2 0x24E PUSH2 0x27C JUMP JUMPDEST SWAP1 POP PUSH0 PUSH8 0xDE0B6B3A7640000 DUP5 DUP4 PUSH2 0x266 SWAP2 SWAP1 PUSH2 0x530 JUMP JUMPDEST PUSH2 0x270 SWAP2 SWAP1 PUSH2 0x59E JUMP JUMPDEST SWAP1 POP DUP1 SWAP3 POP POP POP SWAP2 SWAP1 POP JUMP JUMPDEST PUSH0 PUSH0 PUSH20 0x694AA1769357215DE4FAC081BF1F309ADC325306 SWAP1 POP PUSH0 DUP2 PUSH20 0xFFFFFFFFFFFFFFFFFFFFFFFFFFFFFFFFFFFFFFFF AND PUSH4 0xFEAF968C PUSH1 0x40 MLOAD DUP2 PUSH4 0xFFFFFFFF AND PUSH1 0xE0 SHL DUP2 MSTORE PUSH1 0x4 ADD PUSH1 0xA0 PUSH1 0x40 MLOAD DUP1 DUP4 SUB DUP2 DUP7 GAS STATICCALL ISZERO DUP1 ISZERO PUSH2 0x2DF JUMPI RETURNDATASIZE PUSH0 PUSH0 RETURNDATACOPY RETURNDATASIZE PUSH0 REVERT JUMPDEST POP POP POP POP PUSH1 0x40 MLOAD RETURNDATASIZE PUSH1 0x1F NOT PUSH1 0x1F DUP3 ADD AND DUP3 ADD DUP1 PUSH1 0x40 MSTORE POP DUP2 ADD SWAP1 PUSH2 0x303 SWAP2 SWAP1 PUSH2 0x654 JUMP JUMPDEST POP POP POP SWAP2 POP POP PUSH5 0x2540BE400 DUP2 PUSH2 0x31A SWAP2 SWAP1 PUSH2 0x6CB JUMP JUMPDEST SWAP3 POP POP POP SWAP1 JUMP JUMPDEST PUSH0 DUP2 SWAP1 POP SWAP2 SWAP1 POP JUMP JUMPDEST PUSH2 0x333 DUP2 PUSH2 0x321 JUMP JUMPDEST DUP3 MSTORE POP POP JUMP JUMPDEST PUSH0 PUSH1 0x20 DUP3 ADD SWAP1 POP PUSH2 0x34C PUSH0 DUP4 ADD DUP5 PUSH2 0x32A JUMP JUMPDEST SWAP3 SWAP2 POP POP JUMP JUMPDEST PUSH0 PUSH0 REVERT JUMPDEST PUSH0 PUSH20 0xFFFFFFFFFFFFFFFFFFFFFFFFFFFFFFFFFFFFFFFF DUP3 AND SWAP1 POP SWAP2 SWAP1 POP JUMP JUMPDEST PUSH0 PUSH2 0x37F DUP3 PUSH2 0x356 JUMP JUMPDEST SWAP1 POP SWAP2 SWAP1 POP JUMP JUMPDEST PUSH2 0x38F DUP2 PUSH2 0x375 JUMP JUMPDEST DUP2 EQ PUSH2 0x399 JUMPI PUSH0 PUSH0 REVERT JUMPDEST POP JUMP JUMPDEST PUSH0 DUP2 CALLDATALOAD SWAP1 POP PUSH2 0x3AA DUP2 PUSH2 0x386 JUMP JUMPDEST SWAP3 SWAP2 POP POP JUMP JUMPDEST PUSH0 PUSH1 0x20 DUP3 DUP5 SUB SLT ISZERO PUSH2 0x3C5 JUMPI PUSH2 0x3C4 PUSH2 0x352 JUMP JUMPDEST JUMPDEST PUSH0 PUSH2 0x3D2 DUP5 DUP3 DUP6 ADD PUSH2 0x39C JUMP JUMPDEST SWAP2 POP POP SWAP3 SWAP2 POP POP JUMP JUMPDEST PUSH2 0x3E4 DUP2 PUSH2 0x321 JUMP JUMPDEST DUP2 EQ PUSH2 0x3EE JUMPI PUSH0 PUSH0 REVERT JUMPDEST POP JUMP JUMPDEST PUSH0 DUP2 CALLDATALOAD SWAP1 POP PUSH2 0x3FF DUP2 PUSH2 0x3DB JUMP JUMPDEST SWAP3 SWAP2 POP POP JUMP JUMPDEST PUSH0 PUSH1 0x20 DUP3 DUP5 SUB SLT ISZERO PUSH2 0x41A JUMPI PUSH2 0x419 PUSH2 0x352 JUMP JUMPDEST JUMPDEST PUSH0 PUSH2 0x427 DUP5 DUP3 DUP6 ADD PUSH2 0x3F1 JUMP JUMPDEST SWAP2 POP POP SWAP3 SWAP2 POP POP JUMP JUMPDEST PUSH2 0x439 DUP2 PUSH2 0x375 JUMP JUMPDEST DUP3 MSTORE POP POP JUMP JUMPDEST PUSH0 PUSH1 0x20 DUP3 ADD SWAP1 POP PUSH2 0x452 PUSH0 DUP4 ADD DUP5 PUSH2 0x430 JUMP JUMPDEST SWAP3 SWAP2 POP POP JUMP JUMPDEST PUSH0 DUP3 DUP3 MSTORE PUSH1 0x20 DUP3 ADD SWAP1 POP SWAP3 SWAP2 POP POP JUMP JUMPDEST PUSH32 0x4469646E27742073656E6420656E6F7567680000000000000000000000000000 PUSH0 DUP3 ADD MSTORE POP JUMP JUMPDEST PUSH0 PUSH2 0x49C PUSH1 0x12 DUP4 PUSH2 0x458 JUMP JUMPDEST SWAP2 POP PUSH2 0x4A7 DUP3 PUSH2 0x468 JUMP JUMPDEST PUSH1 0x20 DUP3 ADD SWAP1 POP SWAP2 SWAP1 POP JUMP JUMPDEST PUSH0 PUSH1 0x20 DUP3 ADD SWAP1 POP DUP2 DUP2 SUB PUSH0 DUP4 ADD MSTORE PUSH2 0x4C9 DUP2 PUSH2 0x490 JUMP JUMPDEST SWAP1 POP SWAP2 SWAP1 POP JUMP JUMPDEST PUSH32 0x4E487B7100000000000000000000000000000000000000000000000000000000 PUSH0 MSTORE PUSH1 0x11 PUSH1 0x4 MSTORE PUSH1 0x24 PUSH0 REVERT JUMPDEST PUSH0 PUSH2 0x507 DUP3 PUSH2 0x321 JUMP JUMPDEST SWAP2 POP PUSH2 0x512 DUP4 PUSH2 0x321 JUMP JUMPDEST SWAP3 POP DUP3 DUP3 ADD SWAP1 POP DUP1 DUP3 GT ISZERO PUSH2 0x52A JUMPI PUSH2 0x529 PUSH2 0x4D0 JUMP JUMPDEST JUMPDEST SWAP3 SWAP2 POP POP JUMP JUMPDEST PUSH0 PUSH2 0x53A DUP3 PUSH2 0x321 JUMP JUMPDEST SWAP2 POP PUSH2 0x545 DUP4 PUSH2 0x321 JUMP JUMPDEST SWAP3 POP DUP3 DUP3 MUL PUSH2 0x553 DUP2 PUSH2 0x321 JUMP JUMPDEST SWAP2 POP DUP3 DUP3 DIV DUP5 EQ DUP4 ISZERO OR PUSH2 0x56A JUMPI PUSH2 0x569 PUSH2 0x4D0 JUMP JUMPDEST JUMPDEST POP SWAP3 SWAP2 POP POP JUMP JUMPDEST PUSH32 0x4E487B7100000000000000000000000000000000000000000000000000000000 PUSH0 MSTORE PUSH1 0x12 PUSH1 0x4 MSTORE PUSH1 0x24 PUSH0 REVERT JUMPDEST PUSH0 PUSH2 0x5A8 DUP3 PUSH2 0x321 JUMP JUMPDEST SWAP2 POP PUSH2 0x5B3 DUP4 PUSH2 0x321 JUMP JUMPDEST SWAP3 POP DUP3 PUSH2 0x5C3 JUMPI PUSH2 0x5C2 PUSH2 0x571 JUMP JUMPDEST JUMPDEST DUP3 DUP3 DIV SWAP1 POP SWAP3 SWAP2 POP POP JUMP JUMPDEST PUSH0 PUSH10 0xFFFFFFFFFFFFFFFFFFFF DUP3 AND SWAP1 POP SWAP2 SWAP1 POP JUMP JUMPDEST PUSH2 0x5EC DUP2 PUSH2 0x5CE JUMP JUMPDEST DUP2 EQ PUSH2 0x5F6 JUMPI PUSH0 PUSH0 REVERT JUMPDEST POP JUMP JUMPDEST PUSH0 DUP2 MLOAD SWAP1 POP PUSH2 0x607 DUP2 PUSH2 0x5E3 JUMP JUMPDEST SWAP3 SWAP2 POP POP JUMP JUMPDEST PUSH0 DUP2 SWAP1 POP SWAP2 SWAP1 POP JUMP JUMPDEST PUSH2 0x61F DUP2 PUSH2 0x60D JUMP JUMPDEST DUP2 EQ PUSH2 0x629 JUMPI PUSH0 PUSH0 REVERT JUMPDEST POP JUMP JUMPDEST PUSH0 DUP2 MLOAD SWAP1 POP PUSH2 0x63A DUP2 PUSH2 0x616 JUMP JUMPDEST SWAP3 SWAP2 POP POP JUMP JUMPDEST PUSH0 DUP2 MLOAD SWAP1 POP PUSH2 0x64E DUP2 PUSH2 0x3DB JUMP JUMPDEST SWAP3 SWAP2 POP POP JUMP JUMPDEST PUSH0 PUSH0 PUSH0 PUSH0 PUSH0 PUSH1 0xA0 DUP7 DUP9 SUB SLT ISZERO PUSH2 0x66D JUMPI PUSH2 0x66C PUSH2 0x352 JUMP JUMPDEST JUMPDEST PUSH0 PUSH2 0x67A DUP9 DUP3 DUP10 ADD PUSH2 0x5F9 JUMP JUMPDEST SWAP6 POP POP PUSH1 0x20 PUSH2 0x68B DUP9 DUP3 DUP10 ADD PUSH2 0x62C JUMP JUMPDEST SWAP5 POP POP PUSH1 0x40 PUSH2 0x69C DUP9 DUP3 DUP10 ADD PUSH2 0x640 JUMP JUMPDEST SWAP4 POP POP PUSH1 0x60 PUSH2 0x6AD DUP9 DUP3 DUP10 ADD PUSH2 0x640 JUMP JUMPDEST SWAP3 POP POP PUSH1 0x80 PUSH2 0x6BE DUP9 DUP3 DUP10 ADD PUSH2 0x5F9 JUMP JUMPDEST SWAP2 POP POP SWAP3 SWAP6 POP SWAP3 SWAP6 SWAP1 SWAP4 POP JUMP JUMPDEST PUSH0 PUSH2 0x6D5 DUP3 PUSH2 0x60D JUMP JUMPDEST SWAP2 POP PUSH2 0x6E0 DUP4 PUSH2 0x60D JUMP JUMPDEST SWAP3 POP DUP3 DUP3 MUL PUSH2 0x6EE DUP2 PUSH2 0x60D JUMP JUMPDEST SWAP2 POP PUSH32 0x8000000000000000000000000000000000000000000000000000000000000000 DUP5 EQ PUSH0 DUP5 SLT AND ISZERO PUSH2 0x725 JUMPI PUSH2 0x724 PUSH2 0x4D0 JUMP JUMPDEST JUMPDEST DUP3 DUP3 SDIV DUP5 EQ DUP4 ISZERO OR PUSH2 0x73A JUMPI PUSH2 0x739 PUSH2 0x4D0 JUMP JUMPDEST JUMPDEST POP SWAP3 SWAP2 POP POP JUMP INVALID LOG2 PUSH5 0x6970667358 0x22 SLT KECCAK256 0x26 SWAP4 EXTDELEGATECALL MSTORE SHL 0xF6 DUP2 ADDRESS JUMPI JUMPI 0xB5 PUSH9 0x70A1735AC4ABDD437D DELEGATECALL BASEFEE CHAINID EXTCODESIZE 0x2B PUSH0 0xC EXTCALL BLOBBASEFEE PUSH3 0x6E6473 PUSH16 0x6C634300081E00330000000000000000 "
				},
				"gasEstimates": {
					"creation": {
						"codeDepositCost": "382200",
						"executionCost": "22521",
						"totalCost": "404721"
					},
					"external": {
						"fund()": "infinite",
						"funderToAmount(address)": "2802",
						"funders(uint256)": "4988",
						"minimumUsd()": "2402"
					}
				},
				"methodIdentifiers": {
					"fund()": "b60d4288",
					"funderToAmount(address)": "4407e1e8",
					"funders(uint256)": "dc0d3dff",
					"minimumUsd()": "098de820"
				}
			},
			"storageLayout": {
				"storage": [
					{
						"astId": 56,
						"contract": "contracts/FundMe.sol:FundMe",
						"label": "minimumUsd",
						"offset": 0,
						"slot": "0",
						"type": "t_uint256"
					},
					{
						"astId": 59,
						"contract": "contracts/FundMe.sol:FundMe",
						"label": "funders",
						"offset": 0,
						"slot": "1",
						"type": "t_array(t_address)dyn_storage"
					},
					{
						"astId": 63,
						"contract": "contracts/FundMe.sol:FundMe",
						"label": "funderToAmount",
						"offset": 0,
						"slot": "2",
						"type": "t_mapping(t_address,t_uint256)"
					}
				],
				"types": {
					"t_address": {
						"encoding": "inplace",
						"label": "address",
						"numberOfBytes": "20"
					},
					"t_array(t_address)dyn_storage": {
						"base": "t_address",
						"encoding": "dynamic_array",
						"label": "address[]",
						"numberOfBytes": "32"
					},
					"t_mapping(t_address,t_uint256)": {
						"encoding": "mapping",
						"key": "t_address",
						"label": "mapping(address => uint256)",
						"numberOfBytes": "32",
						"value": "t_uint256"
					},
					"t_uint256": {
						"encoding": "inplace",
						"label": "uint256",
						"numberOfBytes": "32"
					}
				}
			},
			"userdoc": {
				"kind": "user",
				"methods": {},
				"version": 1
			}
		}
	}
}